:100000000C94CB000C948C2F0C94BD2F0C94EE2FE1
:100010000C941F300C9450300C9481300C94B230FE
:100020000C94E3300C94F6000C94F6000C94F6005B
:100030000C942E040C94F6000C94F6000C9414030B
:100040000C94F6000C94F6000C94F6000C94F60058
:100050000C94F6000C94F6000C94F6000C94EF024D
:100060000C94F6000C94832B0C94F6000C94F60080
:100070000C94F6000C94F6000C94F6000C94F60028
:100080000C94F6000C94F6000C94F6000C94F60018
:100090000C94C42B0C94F6000C94F6000C942C2EAB
:1000A0000C94F6000C94F6000C94F6000C94F600F8
:1000B0000C94F6000C94F6000C94F6000C94F600E8
:1000C0000C94F6000C94F6000C94F6000021242702
:1000D0002A2D3033002225282B2E313400202326D0
:1000E000292C2F3205050505030303030101010433
:1000F00004030606060606060606010405010501B8
:1001000003020202020202010202050504040304C2
:1001100004010304070707010208101020408004AF
:1001200008102040020204081020408001028020B4
:100130004004200101020408102001408040800199
:1001400002080408800410040201000008090000ED
:10015000000000000000000000000000000000009F
:10016000000000000000000000000000000000008F
:100170000000000000000000000000000000CE04AD
:100180009F05EB294A2D512D602D612DF22D2B2E2F
:1001900014315231573111241FBECFEFD1E2DEBFEF
:1001A000CDBF1BE0A0E0B2E0E8E8F3E600E00BBF63
:1001B00002C007900D92A23BB107D9F71BBE17E111
:1001C000A2EBBBE001C01D92A437B107E1F711E03B
:1001D000C6E9D1E004C02297FE010E94BE31CE37AD
:1001E000D107C9F70E94E8020C94C2310C940000B8
:1001F0000F931F93CF93DF93689F8001699F100D2A
:10020000789F100D1124C8010E941401EC01009781
:1002100029F060E070E0A8010E941602CE01DF9193
:10022000CF911F910F910895CF93DF93BC0182303E
:10023000910510F462E070E0A0917217B09173170D
:10024000ED01E0E0F0E040E050E021C088819981DC
:100250008617970769F48A819B81309719F09383F9
:10026000828304C09093731780937217FE0134C089
:100270006817790738F44115510519F08417950767
:1002800008F4AC01FE018A819B819C01E901209761
:10029000E9F641155105A9F1CA01861B970B049790
:1002A00008F4BA01E0E0F0E02AC08D919C9111972A
:1002B00084179507F9F46417750781F412968D91E8
:1002C0009C911397309719F09383828304C0909385
:1002D000731780937217FD0132964CC0CA01861BBA
:1002E000970BFD01E80FF91F6193719302978D93AE
:1002F0009C9340C0FD01828193819C01D90110979C
:10030000A1F68091701790917117892B41F480911B
:10031000A10B9091A20B909371178093701740914D
:10032000A30B5091A40B4115510541F44DB75EB795
:1003300080919F0B9091A00B481B590B2091701737
:1003400030917117CA01821B930B8617970780F0B3
:10035000AB014E5F5F4F8417950750F0420F531F5C
:100360005093711740937017F9016193719302C014
:10037000E0E0F0E0CF01DF91CF910895CF93DF93DC
:10038000009709F450C0EC0122971B821A82A091B9
:100390007217B0917317109709F140E050E0AC1755
:1003A000BD0708F1BB83AA83FE0121913191E20FC1
:1003B000F31FAE17BF0779F48D919C911197280F09
:1003C000391F2E5F3F4F3983288312968D919C9160
:1003D00013979B838A834115510571F4D09373174A
:1003E000C093721720C012968D919C911397AD0106
:1003F000009711F0DC01D3CFFA01D383C28321919E
:100400003191E20FF31FCE17DF0769F488819981DC
:10041000280F391F2E5F3F4FFA01318320838A81D5
:100420009B8193838283DF91CF910895DC0101C08A
:100430006D9341505040E0F7089583EB9BE060E0FE
:1004400072E00E94390568EB7BE080E090E00E945A
:10045000510308958EE79EE062E041E021E00E94B2
:100460000A2B8EE79EE00E949C2987EB9BE00E946E
:10047000F6288091910D882391F483EB9BE067E24D
:1004800072E00E9433054091A80F50E060E070E0F8
:1004900083EB9BE020E130E00E94280506C083EB5F
:1004A0009BE064E372E00E9439058EE79EE065EA16
:1004B0007BE00E94EC2780915810882329F483EB7D
:1004C0009BE06AE472E004C083EB9BE067E572E0C6
:1004D0000E9439058EE79EE061E00E9478298091B4
:1004E0005810882329F483EB9BE062E772E004C094
:1004F00083EB9BE063E872E00E9439058EE79EE0A3
:1005000062E00E94F42980915810882329F483EB3B
:100510009BE061EA72E004C083EB9BE06DEB72E06C
:100520000E9439056091AF0B7091B00B8EE79EE091
:100530000E94AB2780915810882329F483EB9BE01D
:100540006EED72E004C083EB9BE06EEE72E00E9401
:1005500039056091AD0B7091AE0B8EE79EE00E9465
:10056000182A80915810882329F483EB9BE066E0D9
:1005700073E004C083EB9BE06EEE72E00E943905ED
:100580008EE79EE061E00E94D82980915810882370
:1005900029F483EB9BE069E173E004C083EB9BE00B
:1005A0006FE273E00E9439058EE79EE00E94D92831
:1005B00080915810882329F483EB9BE062E573E077
:1005C00004C083EB9BE064E673E00E943905089564
:1005D0000E9499030E942A020E941D02FDCF1F92D1
:1005E0000F920FB60F9211248F939F93AF93BF93E7
:1005F0008091E8149091E914A091EA14B091EB1461
:100600000196A11DB11D8093E8149093E914A09365
:10061000EA14B093EB14BF91AF919F918F910F901B
:100620000FBE0F901F9018951F920F920FB60F924A
:1006300011248F939F93AF93BF938091EC1490916B
:10064000ED14A091EE14B091EF140196A11DB11D0F
:100650008093EC149093ED14A093EE14B093EF14E8
:10066000BF91AF919F918F910F900FBE0F901F90F0
:1006700018956091E8147091E9148091EA149091B2
:10068000EB1427E0660F771F881F991F2A95D1F773
:100690002EE330E040E050E00E947F31CA01B90112
:1006A0000895AF92BF92CF92DF92EF92FF920F9395
:1006B0001F935B016C016091E8147091E9148091C3
:1006C000EA149091EB1447E0660F771F881F991F7B
:1006D0004A95D1F72EE330E040E050E00E947F31B0
:1006E00079018A016091E8147091E9148091EA140B
:1006F0009091EB1437E0660F771F881F991F3A958A
:10070000D1F72EE330E040E050E00E947F312E1917
:100710003F09400B510B2A153B054C055D0510F3B5
:100720001F910F91FF90EF90DF90CF90BF90AF900F
:100730000895789484B7877F84BF1092E81410924C
:10074000E9141092EA141092EB1484B5826084BD0F
:1007500084B5816084BD85B5826085BD85B58160C5
:1007600085BDEEE6F0E0808181608083E1E8F0E025
:10077000808182608083808181608083E0E8F0E016
:10078000808181608083E1EBF0E080818460808300
:10079000E1E9F0E0808184608083E0EBF0E080813B
:1007A00081608083E0E9F0E0808181608083E4E61D
:1007B000F0E080818E7F8083ECE7F0E080818F77AE
:1007C0008083808180648083EAE7F0E080818460B8
:1007D00080838081826080838081806880831092A2
:1007E000C1001092C90008959091B20B982B90937C
:1007F000B20B80FF32C0809164008E7F80936400D2
:1008000080917C008F7780937C0080917C00806455
:1008100080937C0080917A00846080937A0080913C
:100820007A00826080937A0080917A008068809359
:100830007A00809164008F778093640080916400D7
:100840008B7F80936400809164008D7F809364002F
:10085000809165008E7F8093650008951F920F92AE
:100860000FB60F920BB60F9211242F933F934F9315
:100870005F936F937F938F939F93AF93BF93EF9308
:10088000FF93F89481E08093B10BE0E6F0E0808183
:100890008068808380818F7B808383E060E00E941A
:1008A00083047894FF91EF91BF91AF919F918F91C5
:1008B0007F916F915F914F913F912F910F900BBE60
:1008C0000F900FBE0F901F901895282F30E0C90190
:1008D000895E9E4FFC0194912C513F4FF901849108
:1008E000882381F0E82FF0E0E453FF4FE491F0E03B
:1008F000662329F4808190958923808308958081DF
:10090000892B80830895482F50E0CA01865B9E4F53
:10091000FC012491CA01895E9E4FFC0194914C51C7
:100920005F4FFA0134913323C1F1222331F1233097
:1009300021F4809180008F7705C0243031F48091BC
:1009400080008F7D8093800018C0213019F484B519
:100950008F7704C0223021F484B58F7D84BD0DC013
:10096000263021F48091B0008F7705C0273029F41C
:100970008091B0008F7D8093B000E32FF0E0EC52C7
:10098000FF4FE491F0E0662329F48081909589235C
:10099000808308958081892B808308951092B30B02
:1009A0001092B50B08950F931F938C018DE0F80101
:1009B00060810E94052C8AE0F80160810E94052C6C
:1009C0001F910F910895EF92FF920F931F93CF9372
:1009D000DF93EC017A018B0177FF0CC08DE2688117
:1009E0000E94052C10950095F094E094E11CF11CF8
:1009F000011D111DC801B7012AE030E040E050E0C0
:100A000008810E942C2CDF91CF911F910F91FF90B4
:100A1000EF9008950F931F93FC01DA018B012115CC
:100A2000310529F4842F60810E94052C0EC02A30E4
:100A3000310519F40E94E30408C030E040E050E0C2
:100A4000BD01C80100810E942C2C1F910F910895B7
:100A50000F931F938C010E940A05C8010E94D304C2
:100A60001F910F910895FC01CB0160810E94162C0B
:100A700008950F931F938C01CB01F80160810E94B0
:100A8000162CC8010E94D3041F910F910895FC01F8
:100A900080810E946F2B0895FC0180810E94342B7D
:100AA0000895FC0180810E94102B0895FC01618350
:100AB000613019F0633099F514C08081882311F4F6
:100AC00086E10DC086E061E00E94650486E061E099
:100AD0000E9483048AE261E00E9465048AE261E088
:100AE00005C08081882329F486E160E00E948304A8
:100AF000089581EE91E160E040E00E940C2E86E0D6
:100B000061E00E94650486E060E00E9483048AE25E
:100B100061E00E9465048AE260E00E948304089517
:100B2000FC01262F608360E070E0CB01BA01422F08
:100B30000E94CE2C86E161E00E9465040895109227
:100B40006D0E10926E0E1092710E1092730E08952B
:100B50000F931F93CF93DF93DC018B01EC01C658F9
:100B6000DD4F1982188240E0BE0106C04F5F2F5F43
:100B70003F4FFB0131832083FB0120813181F8014C
:100B8000E20FF31F8081882389F7469583E090E088
:100B90009983888390E0ED01C658DD4F50E00BC08B
:100BA000FD01E20FF31FE857FD4F8081980F2F5F83
:100BB0003F4F39832883288139812417350780F3F3
:100BC000892F8095A40FB51FA957BD4F8C93DF9136
:100BD000CF911F910F910895DF92EF92FF920F93A3
:100BE0001F93CF93DF93890180E090E0F3E1DF2E44
:100BF000EEE7EE2E31E1F32E37C02F5F3F4F9C9191
:100C00009D3731F01196319624173507B0F32DC07A
:100C10002417350750F5E9012196E60FF71F81816A
:100C2000833361F0843318F4813369F405C08D3562
:100C300049F08E3541F404C0FC9205C0DC9203C03B
:100C4000EC9201C09C9341505040F901E00FF11F1C
:100C5000E60FF71F02C0818180832F5F3F4F3196DF
:100C6000CE0124173507B8F39C012417350738F453
:100C7000F901E00FF11FDB01AE0FBF1FC0CFDF9105
:100C8000CF911F910F91FF90EF90DF900895EF9219
:100C9000FF920F931F93CF93DF938C01EB017A01A7
:100CA000FC01E658FD4F2D5F3F4F318320832350D9
:100CB0003040A0E0B0E0AF010BC0FE01E60FF71F2F
:100CC0008081A80FB11D6F5F7F4FFA017183608330
:100CD000FA01608171816E157F0578F3AF3FB10530
:100CE00021F0AF3F11F081E008C008521E4FC20F43
:100CF000D31F8C81F801808380E0DF91CF911F9119
:100D00000F91FF90EF900895EF92FF920F931F9332
:100D1000CF93DF93EC01CA5BDD4FE8808DEEE80EE8
:100D200024978881C254D240813009F0C9C0CD5D7A
:100D3000DE4FF880C352D140FA948E0106581D4F01
:100D4000D8011D921C92B8012F2D30E087E290E06F
:100D5000289FA001299F500D389F500D11244C0F42
:100D60005D1F11C0FA01EA0FFB1FE05AFF4FAC0FE5
:100D7000BD1FA85BBD4F8C918083FB018081918159
:100D8000019691838083FB01A081B181A230B105DE
:100D900048F3D8011D921C92AE0146585D4F2F2D8D
:100DA00030E087E290E0289FB001299F700D389FC6
:100DB000700D11246C0F7D1F11C0FB01EA0FFB1F8A
:100DC000EE59FF4FAC0FBD1FA65BBD4F8C918083CA
:100DD000FA0180819181019691838083FA01A0813B
:100DE000B181A430B10548F311821082BE0166586A
:100DF0007D4F2F2D30E087E290E0289FA001299FB2
:100E0000500D389F500D11244C0F5D1F12C0FA0178
:100E1000EA0FFB1FEA59FF4FAC0FBD1FA25BBD4F8E
:100E20008C918083DB018D919C91119701968D931C
:100E30009C93FB01A081B181A430B10540F387E20E
:100E400090E0289FF001299FF00D389FF00D1124AC
:100E5000EC0FFD1FEA57FF4FCE5ADD4F8881C25578
:100E6000D2408083E658F040AE014A5B5D4FDA0124
:100E70008D919C910D9720F1DB011D921C929E019A
:100E800026583D4FBA01AF0111C0FA01EA0FFB1F0E
:100E9000E659FF4FAC0FBD1FAD5ABD4F8C918083FB
:100EA000F90180819181019691838083F901A0816C
:100EB000B181FB01808191810C97A817B90728F3B4
:100EC000CE5BDD4F8881C254D2408250843008F01E
:100ED00047C1CD5DDE4FF880C352D140FA948E01F8
:100EE00006581D4FD8011D921C92B8012F2D30E0DD
:100EF00087E290E0289FA001299F500D389F500D58
:100F000011244C0F5D1F11C0FA01EA0FFB1FE05ABC
:100F1000FF4FAC0FBD1FA85BBD4F8C918083FB01C1
:100F200080819181019691838083FB01A081B181B1
:100F3000A230B10548F3D8011D921C92AE0146586B
:100F40005D4F2F2D30E087E290E0289FB001299F70
:100F5000700D389F700D11246C0F7D1F11C0FB01A7
:100F6000EA0FFB1FEE59FF4FAC0FBD1FA65BBD4F35
:100F70008C918083FA018081918101969183808395
:100F8000FA01A081B181A430B10548F31182108229
:100F9000AE0146585D4F2F2D30E087E290E0289F4C
:100FA000B001299F700D389F700D11246C0F7D1FAB
:100FB00012C0FB01EA0FFB1FEA59FF4FAC0FBD1F28
:100FC000A25BBD4F8C918083DA018D919C9111972A
:100FD00001968D939C93FA01A081B181A430B10553
:100FE00040F311821082AE0146585D4F0E2D10E085
:100FF0002F2D30E087E290E0289FB001299F700DEF
:10100000389F700D11246C0F7D1F12C0FB01EA0F79
:10101000FB1FE659FF4FAC0FBD1FAE5ABD4F8C9161
:101020008083DA018D919C91119701968D939C9309
:10103000FA01A081B181A017B10740F3118210829B
:10104000BE0166587D4F2F2D30E087E290E0289F4B
:10105000A001299F500D389F500D11244C0F5D1F8A
:1010600014C0FA01EA0FFB1FE258FF4FAC0FBD1F7F
:10107000A00FB11FAD5ABD4F8C918083DB018D91C4
:101080009C91119701968D939C93FB01A081B18156
:10109000A230B10530F387E290E0289FD001299F6C
:1010A000B00D389FB00D1124AC0FBD1FA058BF4F1D
:1010B000FE01EE0DF11DEB5AFD4F81918D93808164
:1010C0008C93A158B040FB0111821082AE014658AA
:1010D0005D4FBD0114C0FB01EA0FFB1FEE57FF4F30
:1010E000AC0FBD1FA00FB11FA95ABD4F8C918083BB
:1010F000DA018D919C91119701968D939C93FA0141
:10110000A081B181A230B10530F311821082BE01FD
:1011100066587D4F87E290E0289FA001299F500DDF
:10112000389F500D11244C0F5D1F14C0FA01EA0FB7
:10113000FB1FEC57FF4FAC0FBD1FA00FB11FA75AED
:10114000BD4F8C918083DB018D919C91119701960D
:101150008D939C93FB01A081B181A230B10530F346
:10116000DF91CF911F910F91FF90EF900895CF9253
:10117000DF92EF92FF920F931F93CF93DF93EC01D7
:101180006B017A01B901FC01E658FD4F0D5F1F4F5D
:101190001183008303501040A0E0B0E09F010BC01A
:1011A000F601E40FF51F8081A80FB11D4F5F5F4F5F
:1011B000F90151834083F901408151814617570756
:1011C00078F3AF3FB10519F0AF3F09F05AC0F6010F
:1011D000E00FF11F9581D70115968C9115979817FF
:1011E00009F04FC0968116968C91981709F049C066
:1011F0009B01201B310B2930310529F4878188237D
:1012000009F442C03EC087818823D9F5FE01E65823
:10121000FD4F11821082BF012950304012C0FE01E3
:10122000E40FF51FE85BFD4FD601A40FB51FA00F1B
:10123000B11F18968C9180834F5F5F4FFB015183E4
:101240004083DB014D915C914217530740F3CA5B29
:10125000DD4F39832883C654D240F70185818E340F
:1012600091F48681843479F42230310530F0FE0126
:10127000ED5DFE4F80818F5F8083CE010E948406EA
:1012800002C081E001C080E0DF91CF911F910F91FA
:10129000FF90EF90DF90CF900895FC01E658FD4F4E
:1012A00011821082DF010BC0FC01E20FF31FE8572F
:1012B000FD4F10822F5F3F4F11963C932E932D913F
:1012C0003C9111972E31310578F30895CF92DF923A
:1012D000EF92FF920F931F93CF93DF936C01FC016A
:1012E000E658FD4F118210828F01E62EFF24E701A0
:1012F000CC0FDD1FCC0FDD1FCE0DDF1D1CC0EC0F92
:10130000FD1F3B96EE0FFF1FEC0DFD1D80819181AF
:101310000E94BE01D8018D919C911197FE01E80FAA
:10132000F91F3B96EE0FFF1FEC0DFD1D1182108281
:1013300001968D939C93D801ED91FC91E530F105D8
:10134000F0F28701000F111F0C0D1D1D075B1F4FD1
:10135000D801ED91FC9115AA16AA17AA10AECF01DB
:101360000E94BE01F80111821082F601ED5AFF4F72
:10137000808181508083DF91CF911F910F91FF90E9
:10138000EF90DF90CF900895AF92BF92CF92DF920F
:10139000FF920F931F93CF93DF936C01FF2460E0C4
:1013A00070E08C0106581D4FD8016D937C93EB01C2
:1013B000AA96CC0FDD1FCC0DDD1D23C05F01089464
:1013C000A11CB11CA881B981A555BF4FBB96EE0FDA
:1013D000FF1FEC0DFD1D0190F081E02DE555FF4F45
:1013E0002D913D914D915C9180819181A281B3813C
:1013F00082179307A407B50754F4F394F801B18258
:10140000A082D801ED91FC91E430F105B8F2B4E08E
:10141000FB1621F4F62E65E070E002C0F62EF39480
:101420006F5F7F4F6530710508F4BECF0F2D10E060
:10143000065D1F4F000F111F0C0D1D1DF80180814F
:1014400091810E94BE01D8011D921C928F2DDF91C7
:10145000CF911F910F91FF90DF90CF90BF90AF90F1
:101460000895AF92BF92CF92DF92FF920F931F9396
:10147000CF93DF936C01FF2460E070E08C0106588D
:101480001D4FD8016D937C93EB01AA96CC0FDD1F05
:10149000CC0DDD1D23C05F010894A11CB11CA881E7
:1014A000B981A555BF4FBB96EE0FFF1FEC0DFD1D7B
:1014B0000190F081E02DE555FF4F2D913D914D912B
:1014C0005C9180819181A281B381281739074A07F5
:1014D0005B0754F4F394F801B182A082D801ED9136
:1014E000FC91E430F105B8F2B4E0FB1621F4F62EDD
:1014F00065E070E002C0F62EF3946F5F7F4F6530B9
:10150000710508F4BECF0F2D10E0065D1F4F000FD0
:10151000111F0C0D1D1DF801808191810E94BE01DB
:10152000D8011D921C928F2DDF91CF911F910F91A9
:10153000FF90DF90CF90BF90AF9008950F931F93CF
:10154000CF93DF938C01FC01E658FD4F118210828E
:10155000EF0116C0BA96EE0FFF1FE00FF11F80815A
:1015600091810E94BE01888199818A96FC01EE0FCB
:10157000FF1FE00FF11F11821082899799838883E2
:10158000E881F981E530F10528F3DF91CF911F91D2
:101590000F910895AF92BF92CF92DF92EF92FF9298
:1015A0000F931F93CF93DF93EC0109E4A02EB12C8E
:1015B000A80EB91EEE24FF241AE7C12E12E0D12E88
:1015C000C80ED91ED6011D921C928701000F111F53
:1015D000000F111F0E0D1F1D1CC0E00FF11F3B96C9
:1015E000EE0FFF1FEC0FFD1F808191810E94BE0155
:1015F000F60180819181F801E80FF91F3B96EE0F0B
:10160000FF1FEC0FFD1F118210820196D6018D93F2
:101610009C93D601ED91FC91E530F105F0F2D501F6
:10162000ED91FC9115AA16AA17AA10AECF010E943F
:10163000BE01F501119211925F010894E11CF11CA9
:10164000F5E0EF16F10409F0BDCFCD5ADF4F188257
:10165000C65ADD4F188222961882DF91CF911F91D2
:101660000F91FF90EF90DF90CF90BF90AF900895D3
:10167000AF92BF92CF92DF92EF92FF920F931F93A0
:10168000CF93DF93EC01FC01E355FD4F108260E046
:1016900070E01AE7A12E12E0B12EA80EB91E7F014C
:1016A000D5016D937C938B01000F111F0C0F1D1F33
:1016B000075B1F4F28C0D8018D919C916F01089442
:1016C000C11CD11CF601EE0FFF1FEC0FFD1FE75BE5
:1016D000FF4F0190F081E02DDC01D5962D913D91D9
:1016E0004D915C91D89785A996A9A7A9B0AD281767
:1016F00039074A075B076CF4F70180818F5F8083AD
:10170000D501CD92DC92D501ED91FC91E430F1054B
:1017100090F2F7018081843021F4608365E070E00D
:1017200004C0862F8F5FD7018C936F5F7F4F65302A
:10173000710508F4B5CFFE01E658FD4F1182108205
:101740008F017DEAE72E72E0F72EEC0EFD1E2FC012
:10175000F701808190E0FC01EE0FFF1FEE0FFF1FED
:10176000E80FF91FE20FF31F3B96EE0FFF1FEC0F80
:10177000FD1F808191810E94BE01D7018C9190E074
:10178000FC01EE0FFF1FEE0FFF1FE80FF91FD8013E
:101790008D919C911197E80FF91F3B96EE0FFF1F5B
:1017A000EC0FFD1F1182108201968D939C93F8011E
:1017B000208131812530310558F2D701EC91F0E0DC
:1017C000EE0FFF1FEC0FFD1FE75BFF4F0190F08155
:1017D000E02D15AA16AA17AA10AEEC91F0E0EE0FB4
:1017E000FF1FEC0FFD1FE75BFF4F808191810E947F
:1017F000BE01D701EC91F0E0EE0FFF1FEC0FFD1FD3
:10180000E75BFF4F11821082FE01ED5AFF4F80818E
:1018100081508083C155DD4F1882DF91CF911F9198
:101820000F91FF90EF90DF90CF90BF90AF90089511
:101830002F923F924F925F926F927F928F929F92E0
:10184000AF92BF92CF92DF92EF92FF920F931F93CE
:10185000DF93CF93CDB7DEB760970FB6F894DEBFB6
:101860000FBECDBF7C016B01FC01E658FD4F11821C
:1018700010822FEA32E0E20EF31ED7018C9121E5AF
:101880003DEFE20EF31E882311F1DF0110C0F901D4
:10189000EE0FFF1FEE0DFF1DE75BFF4F8081918173
:1018A000892B59F02F5F3F4F11963C932E932D912A
:1018B0003C9111972530310550F34DEA52E0E40E8A
:1018C000F51ED7012C93E3E5FDEFEE0EFF1E2AE790
:1018D00032E0E20EF31ED7011D921C92E8ECFFEFFE
:1018E000EE0EFF1ED7018C91EEEBFDEFEE0EFF1E0C
:1018F000813079F026E432E0E20EF31ED7018D91BB
:101900009C91EAEBFDEFEE0EFF1E0C9770F50C9428
:10191000121E20E832E0E20EF31ED7018C91E0E8BF
:10192000FDEFEE0EFF1E882379F426E432E0E20E8E
:10193000F31ED7018D919C91EAEBFDEFEE0EFF1E99
:10194000059798F40C94121E813079F426E432E065
:10195000E20EF31ED7018D919C91EAEBFDEFEE0EA6
:10196000FF1E0B9710F40C94121E00E010E066248A
:10197000882477249924B70166587D4FE2E44E2EDF
:10198000E2E05E2E4E0C5F1C51E8252E52E0352E13
:101990002E0C3F1C970120583D4F3E872D87DB01C1
:1019A0001D921C92F801EE0FFF1FEE0DFF1DE75B6D
:1019B000FF4F0190F081E02D85A996A9A7A9B0ADB0
:1019C000181619061A061B060CF08CC3D2018C914E
:1019D000813009F0D0C1AD85BE858C91882309F096
:1019E000E1C0D60114969C9114978081981709F054
:1019F00079C3AA24BB2416968C91833219F431E062
:101A0000A32EB12C96012A0D3B1DD90116968C915F
:101A1000DB011D921C928130A9F0813020F08230D0
:101A200009F088C070C09389D90117968C911797D7
:101A3000981709F07FC0948918968C91981709F02F
:101A400079C07CC0FB0111821082A801440F551F90
:101A50004E0D5F1D475B5F4F17C0FA01A081B1813A
:101A6000A20FB31FF601E20FF31FEA0DFB1D1B9639
:101A70009C918781981719F0882483940BC02F5F5D
:101A80003F4FDB012D933C93FB01208131812430BA
:101A9000310518F3DB011D921C92A801440F551F5C
:101AA0004E0D5F1D475B5F4F14C0FA01A081B181ED
:101AB000A20FB31FF601E20FF31FEA0DFB1D1F96E5
:101AC0009C9183859817A1F52F5F3F4FDB012D93E4
:101AD0003C93FB01208131812430310530F325C056
:101AE000992787FD9095F601E40FF51FEA0DFB1D80
:101AF000278130E082179307D9F44F5F5F4FFB01D6
:101B00005183408307C0D801AA0FBB1FAE0DBF1D74
:101B1000A75BBF4FFB0140815181ED91FC91119773
:101B2000E40FF51F85898332D9F6882039F002C089
:101B300088248394F1E06F1609F0D4C2702E21E05E
:101B4000A216B10479F4E02FF0E0EE0FFF1FEE0DC6
:101B5000FF1DE75BFF4F0190F081E02DD601159648
:101B60008C9182AFE72DF0E0EE0FFF1FEE0DFF1D11
:101B7000E75BFF4FA081B181DB968C91DB978F5F94
:101B8000DB968C930190F081E02DD60112962C917A
:101B9000129783A994A9820F911D94AB83AB1596DC
:101BA0009C90E3C0813009F09DC2D6011A969C91A9
:101BB0001A978081981709F095C2AA24BB241C9615
:101BC0008C91833219F4B1E0AB2EB12C96012A0D21
:101BD0003B1DD9011C968C91DB011D921C9281301A
:101BE000A9F0813020F0823009F088C070C093895C
:101BF000D9011D968C911D97981709F07FC0948983
:101C00001E968C91981709F079C07CC0FB01118257
:101C10001082A801440F551F4E0D5F1D475B5F4F9B
:101C200017C0FA01A081B181A20FB31FF601E20F24
:101C3000F31FEA0DFB1D1B969C918585981719F0E3
:101C4000882483940BC02F5F3F4FDB012D933C937F
:101C5000FB01208131812430310518F3DB011D9215
:101C60001C92A801440F551F4E0D5F1D475B5F4F2F
:101C700014C0FA01A081B181A20FB31FF601E20FD7
:101C8000F31FEA0DFB1D1F969C9181899817A1F502
:101C90002F5F3F4FDB012D933C93FB01208131816E
:101CA0002430310530F325C0992787FD9095F60142
:101CB000E40FF51FEA0DFB1D258530E08217930721
:101CC000D9F44F5F5F4FFB015183408307C0D801B8
:101CD000AA0FBB1FAE0DBF1DA75BBF4FFB0140810D
:101CE0005181ED91FC911197E40FF51F85898332A5
:101CF000D9F6882039F002C088248394F1E06F1669
:101D000009F0F0C1702E21E0A216B10479F4E02FA1
:101D1000F0E0EE0FFF1FEE0DFF1DE75BFF4F0190A0
:101D2000F081E02DD6011B968C9182AFE72DF0E07B
:101D3000EE0FFF1FEE0DFF1DE75BFF4FA081B1818E
:101D4000DB968C91DB978F5FDB968C930190F08113
:101D5000E02DD60118962C91189783A994A9820F8B
:101D6000911D94AB83AB1B969C909A94B4E0B915EB
:101D700008F0B4C1F8C68250843008F0B3C1D10174
:101D80008C91882309F0D2C0D6011B969C911B9799
:101D90008081981709F0A6C1AA24BB241D968C91B6
:101DA000833219F431E0A32EB12C96012A0D3B1D8C
:101DB000D9011D968C91DB011D921C928130A9F0F6
:101DC000813020F0823009F088C070C09389D90139
:101DD0001E968C911E97981709F07FC094891F96C4
:101DE0008C91981709F079C07CC0FB011182108298
:101DF000A801440F551F4E0D5F1D475B5F4F17C075
:101E0000FA01A081B181A20FB31FF601E20FF31F07
:101E1000EA0DFB1D1B969C918685981719F0882466
:101E200083940BC02F5F3F4FDB012D933C93FB014D
:101E3000208131812430310518F3DB011D921C9281
:101E4000A801440F551F4E0D5F1D475B5F4F14C027
:101E5000FA01A081B181A20FB31FF601E20FF31FB7
:101E6000EA0DFB1D1F969C9182899817A1F52F5FA3
:101E70003F4FDB012D933C93FB01208131812430C6
:101E8000310530F325C0992787FD9095F601E40FC1
:101E9000F51FEA0DFB1D268530E082179307D9F464
:101EA0004F5F5F4FFB015183408307C0D801AA0FEA
:101EB000BB1FAE0DBF1DA75BBF4FFB014081518112
:101EC000ED91FC911197E40FF51F85898332D9F6C6
:101ED000882039F002C088248394F1E06F1609F05D
:101EE00001C1702E21E0A216B10479F4E02FF0E0D8
:101EF000EE0FFF1FEE0DFF1DE75BFF4F0190F0811E
:101F0000E02DD6011C968C9182AFE72DF0E0EE0F0C
:101F1000FF1FEE0DFF1DE75BFF4F0190F081E02DED
:101F200083AD8F5F83AFF6019484D3C0823009F014
:101F3000D9C0D60151969C9151978081981709F08C
:101F4000D1C0AA24BB2453968C91833219F4B1E0FA
:101F5000AB2EB12C96012A0D3B1DD90153968C91C5
:101F6000DB011D921C928130A9F0813020F082307B
:101F700009F088C070C09389D90154968C91549708
:101F8000981709F07FC0948955968C91981709F09D
:101F900079C07BC0FB0111821082A801440F551F3C
:101FA0004E0D5F1D475B5F4F17C0FA01A081B181E5
:101FB000A20FB31FF601E20FF31FEA0DFB1D1B96E4
:101FC0009C918489981719F0882483940BC02F5F03
:101FD0003F4FDB012D933C93FB0120813181243065
:101FE000310518F3DB011D921C92A801440F551F07
:101FF0004E0D5F1D475B5F4F14C0FA01A081B18198
:10200000A20FB31FF601E20FF31FEA0DFB1D1F968F
:102010009C91808D9817A1F52F5F3F4FDB012D9389
:102020003C93FB01208131812430310530F325C000
:10203000992787FD9095F601E40FF51FEA0DFB1D2A
:10204000248930E082179307D9F44F5F5F4FFB017B
:102050005183408307C0D801AA0FBB1FAE0DBF1D1F
:10206000A75BBF4FFB0140815181ED91FC9111971E
:10207000E40FF51F85898332D9F6882031F002C03C
:1020800088248394F1E06F1669F5702E21E0A21682
:10209000B10479F4E02FF0E0EE0FFF1FEE0DFF1D0D
:1020A000E75BFF4F0190F081E02DD60152968C91B5
:1020B00082AFE72DF0E0EE0FFF1FEE0DFF1DE75B97
:1020C000FF4F0190F081E02D83AD8F5F83AFF6016C
:1020D00092889A94F4E0F91508F445C505E010E0FB
:1020E000662463940F5F1F4F0530110508F457CC29
:1020F0002AE732E0E20EF31ED7011D921C92E6E8B9
:10210000FDEFEE0EFF1E662009F015C68701035590
:102110001D4FD8017C90EFEAF2E0EE0EFF1E81E049
:10212000D7018C93E4EAFDEFEE0EFF1ED7018C91F0
:10213000EDEAFFEFEE0EFF1E853028F0C7010E948A
:10214000380BD8017C90F701ED5AFF4F80818F5FEB
:102150008083A72CBB2481E090E06EE370E00E94B6
:10216000F800FC012501440C551C4E0C5F1C29E4B1
:1021700030E0420E531ED2018D939C93009709F4D8
:10218000F8C522E432E0E20EF31ED7018C912EEB6B
:102190003DEFE20EF31E813009F084C240E852E0C8
:1021A000E40EF51ED7018C9120E83DEFE20EF31E00
:1021B000882309F022C112A6D201ED91FC91D6012B
:1021C00014968C918083F201008111810E94390361
:1021D000D801D5966D937D938D939C93D897F701F5
:1021E000E658FD4F118210829F01A20111C0FA0131
:1021F000608171816A0F7B1FAC0DBD1D8C91DB016D
:1022000019968C93F9018081918101969183808345
:10221000F901A081B181A230B10548F340E050E05E
:10222000D60116968C91833211F441E050E0D5012D
:10223000AA0FBB1FAE0DBF1DA75BBF4F2D913C91D9
:102240001197B601640F751FFB018681F90181A703
:10225000970126583D4FF901118210820D911C9172
:102260001197F80181A5813089F0813020F082300A
:1022700009F089C063C0FB018781F801838BED9170
:10228000FC91DB0118968C91848B7DC0F901118241
:1022900010824901BD0114C0FB01008111810A0FA8
:1022A0001B1FAC0DBD1DA40FB51F17968C91D80137
:1022B0001B968C93F4018081918101969183808398
:1022C000F401A081B181A430B10530F3D9011D9290
:1022D0001C92970126583D4FB501660F771F6E0D72
:1022E0007F1D675B7F4F14C0FB01008111810A0FC6
:1022F0001B1FAC0DBD1DA40FB51F1B968C91D801E3
:102300001F968C93F901808191810196918380833E
:10231000F901A081B181A430B10530F334C0ED9151
:10232000FC911197E80FF91F258BFB0180819181AA
:10233000019691838083459710F00CC0B901FB0191
:1023400080819181F601E80FF91FE40FF51F2781C5
:10235000233229F7F501EE0FFF1FEE0DFF1DE75B9E
:10236000FF4F0190F081E02D2AE732E0E20EF31EEC
:10237000D7018D919C9126E83DEFE20EF31EE80F08
:10238000F91F83E2858B4130510571F4F501EE0FA1
:10239000FF1FEE0DFF1DE75BFF4F0190F081E02D69
:1023A000D60115968C9182AFD501AA0FBB1FAE0D39
:1023B000BF1DA75BBF4FED91FC91119791E093AFCB
:1023C000F60195809A94F4E0F91508F4CCC32D91A8
:1023D0003C911197F6018281F90183AB14AAF601B1
:1023E0008381F90182ABED91FC9182A98150823009
:1023F00010F493A7A0C413A69EC4813009F09BC417
:1024000082A7D201ED91FC91D6011A968C9180831E
:10241000F201008111810E943903D801D5966D9394
:102420007D938D939C93D897A70146585D4FFA01F1
:10243000118210829A01B20111C0FB010081118149
:102440000A0F1B1FAC0DBD1D8C91D80115968C93E6
:10245000F90180819181019691838083F901A081A6
:10246000B181A430B10548F3DA011D921C929701A5
:1024700026583D4FA501440F551F4E0D5F1D475B6C
:102480005F4F12C0FA01608171816A0F7B1FAC0D32
:10249000BD1D14968C91DB0111968C93F9018081FE
:1024A0009181019691838083F901A081B181A4304B
:1024B000B10540F360E070E0D6011C968C91833248
:1024C00011F461E070E0D501AA0FBB1FAE0DBF1D76
:1024D000A75BBF4F2D913C911197A601460F571F47
:1024E000FA018485F90181A7970126583D4FF9012A
:1024F000118210820D911C911197F80181A58130F4
:1025000089F0813020F0823009F089C063C0FA017F
:102510008585F801838BED91FC91DA011E968C91F3
:10252000848B7DC0F901118210824901AD0114C074
:10253000FA01008111810A0F1B1FAC0DBD1DA60FF2
:10254000B71F1D968C91D8011B968C93F401808146
:102550009181019691838083F401A081B181A4309F
:10256000B10530F3D9011D921C92970126583D4FB9
:10257000A501440F551F4E0D5F1D475B5F4F14C0F3
:10258000FA01008111810A0F1B1FAC0DBD1DA60FA2
:10259000B71F51968C91D8011F968C93F9018081B9
:1025A0009181019691838083F901A081B181A4304A
:1025B000B10530F334C0ED91FC911197E80FF91F8C
:1025C000258BFA01808191810196918380834597C3
:1025D00010F00CC0A901FA0180819181F601E80F89
:1025E000F91FE60FF71F2585233229F7F501EE0FB6
:1025F000FF1FEE0DFF1DE75BFF4F0190F081E02D07
:102600002AE732E0E20EF31ED7018D919C9126E875
:102610003DEFE20EF31EE80FF91F83E2858BD50133
:10262000AA0FBB1FAE0DBF1DA75BBF4F2D913C91E5
:102630001197F6018085F90183AB14AAF601818513
:10264000F90182ABED91FC9182A98150823018F49E
:1026500081E083A701C013A66130710571F4F50113
:10266000EE0FFF1FEE0DFF1DE75BFF4F0190F081A6
:10267000E02DD6011B968C9182AFAA0CBB1CAE0C30
:10268000BF1CE9E4F0E0AE0EBF1ED501ED91FC9158
:1026900081E083AFF60193849A94F4E0F91508F091
:1026A0004AC361C28250843008F045C321E832E059
:1026B000E20EF31ED7018C912FE73DEFE20EF31EE1
:1026C000882309F066C1D6011B968C918083F201A4
:1026D000008111810E943903D801D5966D937D93B5
:1026E0008D939C93D89740E050E0F6018585833226
:1026F00011F441E050E0D501AA0FBB1FAE0DBF1D84
:10270000A75BBF4F2D913C911197B601640F751FC8
:10271000FB018585F90181A7970126583D4FF901F5
:10272000118210820D911C911197F80181A58130C1
:1027300089F0813020F0823009F089C063C0FB014C
:102740008685F801838BED91FC91DB011F968C91BE
:10275000848B7DC0F901118210824901BD0114C032
:10276000FB01008111810A0F1B1FAC0DBD1DA40FC1
:10277000B51F1E968C91D8011B968C93F401808115
:102780009181019691838083F401A081B181A4306D
:10279000B10530F3D9011D921C92970126583D4F87
:1027A000B501660F771F6E0D7F1D675B7F4F14C0ED
:1027B000FB01008111810A0F1B1FAC0DBD1DA40F71
:1027C000B51F52968C91D8011F968C93F901808188
:1027D0009181019691838083F901A081B181A43018
:1027E000B10530F334C0ED91FC911197E80FF91F5A
:1027F000258BFB0180819181019691838083459790
:1028000010F00CC0B901FB0180819181F601E80F45
:10281000F91FE40FF51F2685233229F7F501EE0F86
:10282000FF1FEE0DFF1DE75BFF4F0190F081E02DD4
:102830002AE732E0E20EF31ED7018D919C9126E843
:102840003DEFE20EF31EE80FF91F83E2858B413066
:10285000510571F4F501EE0FFF1FEE0DFF1DE75B53
:10286000FF4F0190F081E02DD6011C968C9182AF34
:10287000D501AA0FBB1FAE0DBF1DA75BBF4FED91CA
:10288000FC91119781E083AFF60194849A94F4E06F
:10289000F91508F468C1970126583D4FF9011182D6
:1028A00010828901AD0111C0FA01608171816A0F46
:1028B0007B1FAC0DBD1D8C91DB0115968C93F8012F
:1028C00080819181019691838083F801A081B181FB
:1028D000A430B10548F3D9011D921C9297012658E6
:1028E0003D4FA501440F551F4E0D5F1D475B5F4FC8
:1028F00012C0FA01608171816A0F7B1FAC0DBD1D92
:1029000014968C91DB0111968C93F9018081918151
:10291000019691838083F901A081B181A430B10532
:1029200040F311821082970126583D4FA501440FB4
:10293000551FD701A40FB51FA75BBF4F11C06D91E5
:102940007C911197680F791F8C0D9D1DFC0180856E
:10295000FB018187F90180819181019691838083B8
:10296000F901808191818230910548F3D701A40F4C
:10297000B51FA75BBF4FED91FC91119713A62D9149
:102980003C911197F6018285F90182ABED91FC91A2
:10299000CDC1823009F0CFC1D60151968C91808390
:1029A000F201008111810E943903D801D5966D93FF
:1029B0007D938D939C93D89740E050E0F6018389F6
:1029C000833211F441E050E0D501AA0FBB1FAE0DD8
:1029D000BF1DA75BBF4F2D913C911197B601640FAE
:1029E000751FFB018389F90181A7970126583D4F87
:1029F000F901118210820D911C911197F80181A5A6
:102A0000813089F0813020F0823009F089C063C0C4
:102A1000FB018489F801838BED91FC91DB015596D4
:102A20008C91848B7DC0F901118210824901BD0116
:102A300014C0FB01008111810A0F1B1FAC0DBD1DCD
:102A4000A40FB51F54968C91D8011B968C93F4015A
:102A500080819181019691838083F401A081B1816D
:102A6000A430B10530F3D9011D921C92970126586C
:102A70003D4FB501660F771F6E0D7F1D675B7F4F62
:102A800014C0FB01008111810A0F1B1FAC0DBD1D7D
:102A9000A40FB51F58968C91D8011F968C93F901FD
:102AA00080819181019691838083F901A081B18118
:102AB000A430B10530F334C0ED91FC911197E80FCB
:102AC000F91F258BFB018081918101969183808381
:102AD000459710F00CC0B901FB0180819181F6018E
:102AE000E80FF91FE40FF51F2489233229F7F501B8
:102AF000EE0FFF1FEE0DFF1DE75BFF4F0190F08112
:102B0000E02D2AE732E0E20EF31ED7018D919C9171
:102B100026E83DEFE20EF31EE80FF91F83E2858BF6
:102B20004130510571F4F501EE0FFF1FEE0DFF1D51
:102B3000E75BFF4F0190F081E02DD60152968C911A
:102B400082AFD501AA0FBB1FAE0DBF1DA75BBF4F44
:102B5000ED91FC91119781E083AFF60192889A94F0
:102B6000F4E0F91518F4C701672D2BC59701265815
:102B70003D4FF901118210828901AD0111C0FA01A6
:102B8000608171816A0F7B1FAC0DBD1D8C91DB01D3
:102B900015968C93F80180819181019691838083B1
:102BA000F801A081B181A430B10548F3D9011D928B
:102BB0001C92970126583D4FA501440F551F4E0DFD
:102BC0005F1D475B5F4F12C0FA01608171816A0F20
:102BD0007B1FAC0DBD1D14968C91DB0111968C935F
:102BE000F90180819181019691838083F901A0810F
:102BF000B181A430B10540F31182108297012658AB
:102C00003D4FA501440F551FB701640F751F675B4A
:102C10007F4F12C0FB01008111810A0F1B1FAC0DF9
:102C2000BD1D18968C91D80119968C93F90180815D
:102C30009181019691838083F901A081B181A230B5
:102C4000B10540F3F701E40FF51FE75BFF4FA081EB
:102C5000B18182E09B968C9340815181D6011A9676
:102C60008C91DA019C968C930190F081E02DD60135
:102C70001B968C9185A7F901118210829701265825
:102C80003D4FA501440F551F4E0D5F1D475B5F4F24
:102C900012C0FA01608171816A0F7B1FAC0DBD1DEE
:102CA0001C968C91DB019E968C93F9018081918119
:102CB000019691838083F901A081B181A230B10591
:102CC00040F311821082970126583D4FA501440F11
:102CD000551FD701A40FB51FA75BBF4F11C06D9142
:102CE0007C911197680F791F8C0D9D1DFC018685C5
:102CF000FB0180ABF90180819181019691838083F2
:102D0000F901808191818230910548F3F701E40F48
:102D1000F51FE75BFF4F20813181D60150968C91E2
:102D2000D901D2968C930190F081E02D82A9823056
:102D300011F481E083A7072D10E0A92CBB2481E0CA
:102D400090E068E670E00E94F800AC01F801EE0F38
:102D5000FF1FEE0FFF1FE00FF11FEA0DFB1D3B965B
:102D6000EE0FFF1FEE0DFF1D5183408341155105EE
:102D700021F4C7010E94CA0A26C422E432E0E20E0E
:102D8000F31ED7019C912EEB3DEFE20EF31E913026
:102D900009F0A2C1A0E8B2E0EA0EFB1ED7018C91B7
:102DA00020E83DEFE20EF31E882309F0BCC04A592B
:102DB0005F4FD60115968C91DA018C93D601169649
:102DC0008C910190F081E02D833221F4E959FF4F7D
:102DD000908303C0E959FF4F1082F801EE0FFF1FE7
:102DE000EE0FFF1FE00FF11FEA0DFB1D3B96EE0FEC
:102DF000FF1FEE0DFF1D0190F081E02DE959FF4FFF
:102E00006081862E9924D701A658BD4F11961C9239
:102E10001E92F801EE0FFF1FEE0DFF1DE75BFF4F47
:102E20000190F081E02D81A5813071F0813018F0A2
:102E3000823039F403C082E090E01CC040E050E0F2
:102E40000BC080E090E016C088E090E013C02F5FD8
:102E50003F4F11963C932E932D913C911197F60183
:102E6000E20FF31FE80DF91D87814F5F5F4F83323B
:102E700071F7CA01695F680F262F30E0F701EA5B3E
:102E8000FD4F808191818217930710F43183208355
:102E9000F801EE0FFF1FEE0FFF1FE00FF11FEA0D0D
:102EA000FB1D3B96EE0FFF1FEE0DFF1D6081718134
:102EB0006C597F4F46E452E0E40EF51ED7018D9128
:102EC0009C914AEB5DEFE40EF51E821B930BDB0138
:102ED0008D939C93D701A658BD4F11961C921E92BC
:102EE0004D01AF0110C06E0F7F1FEC0DFD1DE20FF5
:102EF000F31F8081FB018083D4018D919C911197F8
:102F000001968D939C93D401ED91FC91DA016D9122
:102F10007C916C597F4FDB018D919C916456704080
:102F2000E817F90700F3E0E8F2E0EE0EFF1ED70124
:102F30009C91E0E8FDEFEE0EFF1E913009F0CCC051
:102F4000F801EE0FFF1FEE0FFF1FE00FF11FEA0D5C
:102F5000FB1D3B96EE0FFF1FEE0DFF1D2081318103
:102F60002A593F4FD6011B968C91D9018C93D601DB
:102F70001C968C910190F081E02D833221F4E95967
:102F8000FF4F908303C0E959FF4F1082F801EE0F05
:102F9000FF1FEE0FFF1FE00FF11FEA0DFB1D3B9619
:102FA000EE0FFF1FEE0DFF1D0190F081E02DE9599E
:102FB000FF4F6081862E9924D701A658BD4F1196E8
:102FC0001C921E92F801EE0FFF1FEE0DFF1DE75B36
:102FD000FF4F0190F081E02D81A5813071F08130AB
:102FE00018F0823039F403C082E090E01CC040E069
:102FF00050E00BC080E090E016C088E090E013C085
:103000002F5F3F4F11963C932E932D913C9111973A
:10301000F601E20FF31FE80DF91D85854F5F5F4F45
:10302000833271F7CA01635F680F262F30E0F70122
:10303000EA5BFD4F808191818217930710F4318301
:103040002083F801EE0FFF1FEE0FFF1FE00FF11FAF
:10305000EA0DFB1D3B96EE0FFF1FEE0DFF1D60817D
:1030600071816C597F4F46E452E0E40EF51ED701A2
:103070008D919C914AEB5DEFE40EF51E821B930B44
:10308000DB018D939C93D701A658BD4F11961C92DE
:103090001E924D01AF0110C06E0F7F1FEC0DFD1D84
:1030A000E20FF31F8081FB018083D4018D919C91FD
:1030B000119701968D939C93D401ED91FC91DA01C7
:1030C0006D917C916C597F4FDB018D919C91645681
:1030D0007040E817F90700F3E2E4F2E0EE0EFF1E9D
:1030E000D7018C91EEEBFDEFEE0EFF1E8250843087
:1030F00008F0ABC121E832E0E20EF31ED7018C915B
:10310000EFE7FDEFEE0EFF1E882309F0CEC0F801B9
:10311000EE0FFF1FEE0FFF1FE00FF11FEA0DFB1D6B
:103120003B96EE0FFF1FEE0DFF1D208131812A59C6
:103130003F4FD6011C968C91D9018C93D6011D96D8
:103140008C910190F081E02D833229F4E959FF4FF1
:1031500081E0808303C0E959FF4F1082F801EE0F30
:10316000FF1FEE0FFF1FE00FF11FEA0DFB1D3B9647
:10317000EE0FFF1FEE0DFF1D0190F081E02DE959CC
:10318000FF4F6081862E9924D701A658BD4F119616
:103190001C921E92F801EE0FFF1FEE0DFF1DE75B64
:1031A000FF4F0190F081E02D81A5813071F08130D9
:1031B00018F0823039F403C082E090E01CC040E097
:1031C00050E00BC080E090E016C088E090E013C0B3
:1031D0002F5F3F4F11963C932E932D913C91119769
:1031E000F601E20FF31FE80DF91D86854F5F5F4F73
:1031F000833271F7CA01625F680F262F30E0F70152
:10320000EA5BFD4F808191818217930710F431832F
:103210002083F801EE0FFF1FEE0FFF1FE00FF11FDD
:10322000EA0DFB1D3B96EE0FFF1FEE0DFF1D6081AB
:1032300071816C597F4F46E452E0E40EF51ED701D0
:103240008D919C914AEB5DEFE40EF51E821B930B72
:10325000DB018D939C93D701A658BD4F11961C920C
:103260001E925D01AF0110C06E0F7F1FEC0DFD1DA2
:10327000E20FF31F8081FB018083D5018D919C912A
:10328000119701968D939C93D501ED91FC91DA01F4
:103290006D917C916C597F4FDB018D919C916456AF
:1032A0007040E817F90700F3D0C0823009F0CDC0B4
:1032B000F801EE0FFF1FEE0FFF1FE00FF11FEA0DE9
:1032C000FB1D3B96EE0FFF1FEE0DFF1D2081318190
:1032D0002A593F4FD60152968C91D9018C93D60131
:1032E00053968C910190F081E02D833229F4E959B5
:1032F000FF4F81E0808303C0E959FF4F1082F8013E
:10330000EE0FFF1FEE0FFF1FE00FF11FEA0DFB1D79
:103310003B96EE0FFF1FEE0DFF1D0190F081E02D9B
:10332000E959FF4F6081862E9924D701A658BD4FD9
:1033300011961C921E92F801EE0FFF1FEE0DFF1D5D
:10334000E75BFF4F0190F081E02D81A5813071F0A6
:10335000813018F0823039F403C082E090E01CC064
:1033600040E050E00BC080E090E016C088E090E0C4
:1033700013C02F5F3F4F11963C932E932D913C919C
:103380001197F601E20FF31FE80DF91D87894F5FD2
:103390005F4F833271F7CA016C5E680F262F30E0F1
:1033A000F701EA5BFD4F808191818217930710F44A
:1033B00031832083F801EE0FFF1FEE0FFF1FE00F98
:1033C000F11FEA0DFB1D3B96EE0FFF1FEE0DFF1DDB
:1033D000608171816C597F4F46E452E0E40EF51E26
:1033E000D7018D919C914AEB5DEFE40EF51E821B97
:1033F000930BDB018D939C93D701A658BD4F11967B
:103400001C921E925D01AF0110C06E0F7F1FEC0D6C
:10341000FD1DE20FF31F8081FB018083D5018D919B
:103420009C91119701968D939C93D501ED91FC9100
:10343000DA016D917C916C597F4FDB018D919C91EC
:1034400064567040E817F90700F3F701E85BFF4F97
:1034500080818F5F8083853009F41082000F111FF7
:103460000E0D1F1D075B1F4FD801ED91FC9193AD11
:1034700082AD981711F481E081AF99E4C92ED12C67
:10348000CE0CDF1C66247724870106581D4F83E588
:10349000282E312C2E0C3F1CF701E355FD4FFA83EB
:1034A000E983970121553D4F3C832B83A701415A66
:1034B0005F4F5E834D83C7018E5B9D4F98878F83DF
:1034C000D701AF57BD4FBA87A987F701E752FE4F23
:1034D000FC87EB87D8011D921C920E943903D6010C
:1034E000ED91FC91309709F48FC325A936A947A91E
:1034F00050AD12161306140615060CF085C3621B98
:10350000730B840B950B69557B41804090400CF008
:1035100037C381AD813009F000C3B62CE981FA814F
:103520006082AB81BC811C92ED81FE8180818F5FC6
:103530008083D8011D921C920FC0F901BA96EE0F3C
:10354000FF1FEE0DFF1D80819181892B59F02F5FA8
:103550003F4FF80131832083D8012D913C912530D4
:10356000310558F3E22FAD81BE818C91853090F00A
:10357000AB85BC858C91813029F0813038F0823068
:1035800049F41DC0C7010E94310A03C0C7010E944F
:10359000C409E82F4E2E552481E090E064EB70E0E2
:1035A0000E94F800AC019201265D3F4F220F331FAD
:1035B0002E0D3F1DF90191838083009731F4C701DF
:1035C0006B2D0E9466098FEF2EC3D1018C91815023
:1035D0008C9345555F4FD601ED91FC9185A896A837
:1035E000A7A8B0ACDA018D929D92AD92BC921397D0
:1035F0004F5250408081FA018083D901ED91FC91B6
:10360000E955FF4FD6018D919C91DC019A968C91E2
:103610008083F901A081B181F60180819181FC0153
:1036200083A518968C93AF81B8858C91813009F071
:1036300060C0F901A081B181A955BF4F8C91A75AF3
:10364000B040813009F048C0D8011D921C92A901F8
:1036500016C0FA01A081B181A80FB91FAF57BF4FA3
:10366000F60120813181280F391FF90185818C9362
:10367000D8018D919C91119701968D939C93F8019F
:10368000808191818430910520F311821082A20102
:10369000465D5F4F440F551F4E0D5F1D16C0FA016A
:1036A000A081B181A80FB91FA358BF4FF601208197
:1036B0003181280F391FF90181818C93D8018D91B7
:1036C0009C91119701968D939C93F8018081918133
:1036D0008430910520F36EC0882309F06BC0AB578E
:1036E000BF4FF60180819181FC0181858C93D901C6
:1036F00056C0F80111821082A90116C0FA01A081FA
:10370000B181A80FB91FAF57BF4FF601208131819A
:10371000280F391FF90185818C93D8018D919C91D7
:10372000119701968D939C93F8018081918184304B
:10373000910520F3118210829201265D3F4FB9015D
:10374000660F771F6E0D7F1D13C0DB01ED91FC919D
:10375000E80FF91FE358FF4F480F591FDA01119680
:103760008C918083F801808191810196918380837F
:10377000D8018D919C91F601408151818430910551
:1037800020F3D901AA0FBB1FAE0DBF1D2D913C9197
:1037900011972B573F4FFA018185F9018083ED91F5
:1037A000FC91EA57FF4FD6018D919C91DC011A964E
:1037B0008C918083F601808191813AE2A32EB12C15
:1037C000A40CB51CAA0CBB1CAE0CBF1CD501ED9102
:1037D000FC91EA55FF4FDC01DA966C91DA97D396AB
:1037E0008D919C91D49770E00E9458316083D501EF
:1037F000ED91FC91E855FF4FD6018D919C91DC0134
:1038000099968C918083F501A081B181A855BF4F15
:103810008C91A85AB0408130D9F0813020F08230AC
:1038200009F08BC05DC0A157BF4FF6018081918127
:10383000FC0183898C93D501ED91FC91E057FF4FFA
:10384000D6018D919C91DC0154968C91808375C03A
:10385000F80111821082A50116C0FA01A081B18180
:10386000A80FB91FA557BF4FF60120813181280F3E
:10387000391FF90183858C93D8018D919C91119703
:1038800001968D939C93F8018081918184309105FC
:1038900020F311821082A201465D5F4F440F551F35
:1038A0004E0D5F1D16C0FA01A081B181A80FB91F8E
:1038B000A957BF4FF60120813181280F391FF90127
:1038C00087858C93D8018D919C91119701968D934A
:1038D0009C93F801808191818430910520F32DC063
:1038E000D8011D921C92A501F80180819181FA01F5
:1038F000A081B181A80FB91FAF56BF4FF60120813B
:103900003181280F391FF90185898C93D8018D9158
:103910009C91119701968D939C93D601ED91FC910A
:10392000E80FF91F25892332F9F6D501ED91FC91B5
:10393000E80FF91FEF56FF4F2083D601ED91FC9160
:1039400082AD682F70E061507040F301EE0FFF1FF1
:10395000EE0FFF1FE60DF71DE60FF71F3B96EE0F6C
:10396000FF1FEE0DFF1DF88BEF8788249924AA24F2
:10397000BB24A201465D5F4F440F551F4E0D5F1DD6
:1039800032C0D8011D921C9216C0FA0120813181EB
:10399000280F391F2A0D3B1DA80FB91F8C91D90183
:1039A0001C968C930894811C911CF8018081918154
:1039B000019691838083D8018D919C91EF85F88940
:1039C000A081B181AC59BF4F2D913C911197A45664
:1039D000B04082179307C8F2A20EB31E6150704028
:1039E0003297F88BEF87FFEF6F3F7F0751F6920119
:1039F000265D3F4F220F331F2E0D3F1DF901A08181
:103A0000B181A059BF4F11969C928E92A057B040A1
:103A1000E985FA858081823009F044C0AC58BF4FF7
:103A2000F60180819181FC0184A58C93D901ED91EF
:103A3000FC91EB58FF4FD6018D919C91DC019D9636
:103A40008C918083D901ED91FC91EA58FF4FD6010A
:103A50008D919C91DC019E968C918083D901ED9192
:103A6000FC91E958FF4FD6018D919C91DC019F9606
:103A70008C918083D901ED91FC91E858FF4FD601DC
:103A80008D919C91DC01D0968C918083D901ED9130
:103A9000FC91E758FF4FD6018D919C91DC01D196A6
:103AA0008C918083F801118210825301AA0CBB1CF7
:103AB000AA0CBB1CA60CB71C1CC0EA0DFB1D3B9638
:103AC000EE0FFF1FEE0DFF1D808191810E94BE0150
:103AD000D8018D919C911197F501E80FF91F3B9644
:103AE000EE0FFF1FEE0DFF1D1182108201968D93C8
:103AF0009C93D801ED91FC91E530F105F0F2D601EF
:103B0000ED91FC9115AA16AA17AA10AECF010E943A
:103B1000BE01F6011182108277C092AD83AD981775
:103B200009F072C0D8011D921C925301AA0CBB1C53
:103B3000AA0CBB1CA60CB71C1CC0EA0DFB1D3B96B7
:103B4000EE0FFF1FEE0DFF1D808191810E94BE01CF
:103B5000F80180819181F501E80FF91F3B96EE0F86
:103B6000FF1FEE0DFF1D118210820196D8018D936B
:103B70009C93D801ED91FC91E530F105F0F22DC058
:103B8000F801118210825301AA0CBB1CAA0CBB1CA9
:103B9000A60CB71C1CC0EA0DFB1D3B96EE0FFF1FC9
:103BA000EE0DFF1D808191810E94BE01D8018D9193
:103BB0009C911197F501E80FF91F3B96EE0FFF1F3F
:103BC000EE0DFF1D1182108201968D939C93D801FA
:103BD000ED91FC91E530F105F0F2D601ED91FC910B
:103BE00015AA16AA17AA10AECF010E94BE01F601AF
:103BF00011821082D1018C9181508C93E981FA81DC
:103C00006082AB81BC811C920894611C711CE2E053
:103C1000F0E0CE0EDF1EF5E06F16710409F05ACC0D
:103C200080E001C081E060960FB6F894DEBF0FBE61
:103C3000CDBFCF91DF911F910F91FF90EF90DF905B
:103C4000CF90BF90AF909F908F907F906F905F903C
:103C50004F903F902F900895AF92BF92CF92DF92F6
:103C6000EF92FF920F931F93CF93DF93EC016B01C1
:103C70005A01890188E790E061E070E00E94F80055
:103C80007C01009711F41FEF81C0B8016D5F7F4F79
:103C9000FE01E658FD4F7183608340E050E0DF0194
:103CA0000BC0F601E20FF31F8081480F511D2F5FFB
:103CB0003F4F11963C932E932D913C9111972A15CD
:103CC0003B0578F34F3F510519F04F3F09F06AC0AB
:103CD000DE01AA5BBD4F11961C921E92FE01E658B2
:103CE000FD4F0C5F1F4F11830083045010409F0154
:103CF0000894A108B108AD0116C0FD013497E01B7E
:103D0000F10BEE0DFF1DAC0DBD1D8C918083FA01F2
:103D100080819181019691838083F90180819181D5
:103D2000019691838083F901A081B181AA15BB0519
:103D300020F36C0D7D1DFB018081813879F0823884
:103D400018F48038D9F405C0803971F08139B1F4A4
:103D50000FC0C058DD4F81E0888303C0C058DD4FDD
:103D60001882C058D2400AC0CF57DD4F188204C015
:103D7000CF57DD4F82E08883C158D240CE01B701D2
:103D80000E94180C182FC7010E94BE01812FDF91DD
:103D9000CF911F910F91FF90EF90DF90CF90BF9048
:103DA000AF900895C7010E94BE0111E0EFCF2F929E
:103DB0003F924F925F926F927F928F929F92AF92BB
:103DC000BF92CF92DF92EF92FF920F931F93DF93F8
:103DD000CF93CDB7DEB762970FB6F894DEBF0FBEB4
:103DE000CDBF6C014B010E943903F82E2CED31E060
:103DF000C20ED31E82E0D6018C93E4E2FEEFCE0E1B
:103E0000DF1EF601E255FD4F8081882321F400E09A
:103E100010E0332408C08EE7D4018C93108201E0B7
:103E200010E0332433944F2D592FCB01DA012C01AC
:103E30003D01EBE0F0E0FA8BE98BEE2422244EEA20
:103E4000A42E42E0B42EAC0CBD1C96012B5B3D4F62
:103E5000388B2F875FC1AF85B889FC90FF2009F0B0
:103E6000A9C083EB9BE00E945105882309F491C00F
:103E700083EB9BE00E944C05F401E00FF11F80836F
:103E80000F5F1F4F0E943903AC01CB01DA012C01F7
:103E90003D0101501040F401E00FF11F0F5F1F4F73
:103EA00080818E3761F48CE291E0801B910B8E361D
:103EB000910520F421E0D5012C9301C03394013009
:103EC000110541F400E010E080818E3751F401E0EB
:103ED00010E007C031E00C32130718F0FF24F39410
:103EE00001C0FF2486E0289E900111242C5F3F4FE3
:103EF000C9018E0D911D0817190799F491E0E91673
:103F000099F0F401E00FF11F319780818A588230D7
:103F100080F0A989BA891396BA8BA98BEE24E39411
:103F200003C0B1E0EB1629F4E989FA893196FA8BDE
:103F3000E98BF401E00FF11F3197E081ED3749F48F
:103F4000EE2001F529893A892F5F3F4F3A8B298B63
:103F500019C0EA3851F402171307A1F489899A8924
:103F600006969A8B898B23940DC0EE3759F491E015
:103F7000E91641F4A989BA891197BA8BA98B39EF4F
:103F8000E32EEA0EE989FA890E171F0711F4FF24C0
:103F9000F3940E9439030E94390364197509860954
:103FA0009709615D77408040904008F4B1C083EB91
:103FB0009BE0ABC021E0F21609F0ACC085EB9BE0C2
:103FC0000E945105882311F4FF2490C085EB9BE0EB
:103FD0000E944C05F401E00FF11F80830F5F1F4F1B
:103FE0000E943903AC01CB01DA012C013D010150E3
:103FF0001040F401E00FF11F0F5F1F4F80818E37DB
:1040000059F48CE291E0801B910B8E36910518F4E7
:10401000D501FC9201C033940130110541F400E058
:1040200010E080818E3751F401E010E007C0B1E06C
:104030000C321B0718F0FF24F39401C0FF24E6E0C4
:104040002E9E900111242C5F3F4FC9018E0D911DB2
:104050000817190799F4F1E0EF1699F0F401E00F51
:10406000F11F319780818A58823080F089899A893E
:1040700003969A8B898BEE24E39403C091E0E916B2
:1040800029F4A989BA891196BA8BA98BF401E00F9A
:10409000F11F3197E081ED3741F4EE2001F5E98918
:1040A000FA893196FA8BE98B1AC0EA3859F402176B
:1040B0001307A9F429893A892A5F3F4F3A8B298B44
:1040C00023940DC0EE3759F431E0E31641F48989A9
:1040D0009A8901979A8B898B29EFE22EE80EA9899C
:1040E000BA890A171B0711F4FF24F3940E943903BD
:1040F0000E9439036419750986099709615D774043
:104100008040904028F085EB9BE00E94470507C067
:10411000FF2029F4F5018081882309F49CCED40185
:104120008C918E3709F0339491E0E92EF12CAA247A
:10413000BB248AE7482E82E0582E4C0C5D1CF60109
:10414000E655FD4FFA83E983960125553D4F3C83A3
:104150002B83C60184559D4F9E838D83D601A75521
:10416000BD4FB887AF83F601E855FD4FFA87E98761
:10417000960124523E4F3C872B8766246394C601E8
:1041800085529E4F9E878D879BC00894E11CF11C31
:1041900080818E3721F03196E016F106B0F3D70119
:1041A000AA19BB09BA8BA98BF2011182108277245C
:1041B000A4014A0D5B1D0CC0FA01E20FF31F8081C0
:1041C0008D3709F473942F5F3F4FD2012D933C93A9
:1041D000F2012081318189899A892817390760F392
:1041E000772049F09701281B390BC601B401498992
:1041F0005A890E94EC059701A989BA892A1B3B0BB1
:10420000F401E20FF31F83818B38C1F18C3820F465
:104210008A3809F050C006C0803991F0813909F020
:104220004AC01BC0E989FA89EA0DFB1DE719F109AB
:10423000FA8BE98BC601B401AF010E9447063BC06F
:1042400089899A898A0D9B1D871991099A8B898B77
:10425000C601B40149895A890BC0E989FA89EA0D76
:10426000FB1DE719F109FA8BE98BC601B401AF0117
:104270000E942C1EAD85BE858C931DC08581A981B1
:10428000BA818C938681AB81BC818C938781AD810F
:10429000BE818C938185AF81B8858C938085E985BB
:1042A000FA858083882321F4AB85BC851C9203C0EA
:1042B000EB85FC8560823A9457010894E11CF11C5F
:1042C000332021F0F401EE0DFF1D62CF2CED31E023
:1042D000C20ED31ED6018C9162960FB6F894DEBF43
:1042E0000FBECDBFCF91DF911F910F91FF90EF9047
:1042F000DF90CF90BF90AF909F908F907F906F9006
:104300005F904F903F902F9008952F923F924F9241
:104310005F926F927F928F929F92AF92BF92CF9255
:10432000DF92EF92FF920F931F93DF93CF93CDB75E
:10433000DEB72A970FB6F894DEBF0FBECDBF5C0183
:104340004B010E943903F82E2CED31E0A20EB31E72
:1043500082E0D5018C93E4E2FEEFAE0EBF1EF501C4
:10436000E255FD4F8081882321F400E010E03324E2
:1043700008C08EE7D4018C93108201E010E0332452
:1043800033944F2D592FCB01DA012C013D01E7E089
:10439000F0E0FA87E987EE242224FEEACF2EF2E04D
:1043A000DF2ECA0CDB1C95012B5B3D4F38872F831A
:1043B0005FC1AF81B885FC90FF2009F0A9C083EBF5
:1043C0009BE00E945105882309F491C083EB9BE098
:1043D0000E944C05F401E00FF11F80830F5F1F4F17
:1043E0000E943903AC01CB01DA012C013D010150DF
:1043F0001040F401E00FF11F0F5F1F4F80818E37D7
:1044000061F48CE291E0801B910B8E36910520F4D3
:1044100021E0D6012C9301C033940130110541F401
:1044200000E010E080818E3751F401E010E007C019
:1044300031E00C32130718F0FF24F39401C0FF247D
:1044400086E0289E900111242C5F3F4FC9018E0DFC
:10445000911D0817190799F491E0E91699F0F401F4
:10446000E00FF11F319780818958823080F0A98553
:10447000BA851396BA87A987EE24E39403C0B1E006
:10448000EB1629F4E985FA853196FA87E987F40174
:10449000E00FF11F3197E081ED3749F4EE2001F58F
:1044A00029853A852F5F3F4F3A87298719C0EA3817
:1044B00051F402171307A1F489859A8506969A8705
:1044C000898723940DC0EE3759F491E0E91641F441
:1044D000A985BA851197BA87A987E9EFEE2EEA0E6A
:1044E000E985FA850E171F0711F4FF24F3940E9443
:1044F00039030E9439036419750986099709615DBA
:1045000077408040904008F4B1C083EB9BE0ABC0A3
:1045100021E0F21609F0ACC085EB9BE00E9451054A
:10452000882311F4FF2490C085EB9BE00E944C058A
:10453000F401E00FF11F80830F5F1F4F0E943903CA
:10454000AC01CB01DA012C013D0101501040F40116
:10455000E00FF11F0F5F1F4F80818E3759F48CE2FF
:1045600091E0801B910B8E36910518F4D601FC92D8
:1045700001C033940130110541F400E010E0808166
:104580008E3751F401E010E007C0B1E00C321B0798
:1045900018F0FF24F39401C0FF24E6E02E9E900162
:1045A00011242C5F3F4FC9018E0D911D081719076B
:1045B00099F4F1E0EF1699F0F401E00FF11F319753
:1045C00080818958823080F089859A8503969A8700
:1045D0008987EE24E39403C091E0E91629F4A985C4
:1045E000BA851196BA87A987F401E00FF11F3197B8
:1045F000E081ED3741F4EE2001F5E985FA85319649
:10460000FA87E9871AC0EA3859F402171307A9F4A0
:1046100029853A852A5F3F4F3A87298723940DC021
:10462000EE3759F431E0E31641F489859A85019714
:104630009A87898779EFE72EE80EA985BA850A1748
:104640001B0711F4FF24F3940E9439030E943903DD
:104650006419750986099709615D7740804090402B
:1046600028F085EB9BE00E94470507C0FF2029F456
:10467000F6018081882309F49CCED4018C918E3779
:1046800009F0339461E0E62EF12CCC24DD245AE7C6
:10469000452E52E0552E4A0C5B1CF501E552FE4FAB
:1046A000FA83E983950128553D4F3C832B83C5014F
:1046B00084529E4F9E838D836624639488C00894A1
:1046C000E11CF11C80818E3721F03196E016F10655
:1046D000B0F3D701AC19BD09BA87A987F2011182DD
:1046E00010827724A4014C0D5D1D0CC0FA01E20F6D
:1046F000F31F80818D3709F473942F5F3F4FD201F0
:104700002D933C93F2012081318189859A85281768
:10471000390760F3772049F09701281B390BC50151
:10472000B40149855A850E94EC059701A985BA858F
:104730002A1B3B0BF401E20FF31F8381813821F127
:10474000823818F48038F1F512C0893871F18A384E
:10475000C9F5E985FA85EC0DFD1DE719F109FA8720
:10476000E987C501B401AF010E9447062BC08985C6
:104770009A858C0D9D1D871991099A878987C50196
:10478000B40149855A850BC0E985FA85EC0DFD1DFC
:10479000E719F109FA87E987C501B401AF010E9461
:1047A0002C1EA981BA818C930DC08581EB81FC817F
:1047B0008083882321F4AD81BE811C9203C0ED81EA
:1047C000FE8160823A9467010894E11CF11C332059
:1047D00021F0F401EE0DFF1D75CF2CED31E0A20E9E
:1047E000B31ED5018C912A960FB6F894DEBF0FBE8A
:1047F000CDBFCF91DF911F910F91FF90EF90DF9090
:10480000CF90BF90AF909F908F907F906F905F9070
:104810004F903F902F9008952F923F924F925F922A
:104820006F927F928F929F92AF92BF92CF92DF92C0
:10483000EF92FF920F931F93DF93CF93CDB7DEB725
:1048400060970FB6F894DEBF0FBECDBF6C017887BE
:104850006F838CE291E061E070E00E94F8005C01FF
:104860000097A1F425E432E0C20ED31EF6010081C8
:10487000002319F483EB9BE004C0013021F485EBA5
:104880009BE00E944705FF24FA9400C20E9439036E
:104890000E943903F601E255FD4F8081882321F4FF
:1048A0001A822224332409C010828EE7F501808306
:1048B000F1E0FA83B1E02B2E312CEF81F885808175
:1048C0008F3F29F4C601B5010E94852106C08E3FA5
:1048D00079F4C601B5010E94D71E860104521E4F0D
:1048E000F8018083C5010E94BE01F801F080CEC1AD
:1048F0008E3E41F4A5E06A2E712C812C912CFDE6B0
:104900005F2E07C0E2E36E2E712C812C912C7EE18C
:10491000572EEF81F8858581853489F4868184342A
:1049200009F045C022E432E0C20ED31EF6018081B8
:104930002EEB3DEFC20ED31E8130C9F5C7C18434C2
:1049400061F4EF81F88586818E3489F568EE662EF4
:1049500063E0762E812C912C2AC08E3441F5EF81B4
:10496000F8858681843419F522E432E0C20ED31E24
:10497000F60180812EEB3DEFC20ED31E833039F459
:1049800050E4652E5CE9752E812C912C10C084506A
:10499000823038F440EB642E46E3742E812C912C47
:1049A00006C030E2632E3EE4732E812C912C0E94CF
:1049B00039036B837C838D839E830E943903AC0112
:1049C000CB01DA017C018D01A60142555D4F588B68
:1049D0004F87C6018B5B9D4F9C878B87E52DF0E051
:1049E000FE87ED87442443945CC083EB9BE00E94E8
:1049F0005105882309F451C083EB9BE00E944C05CC
:104A0000F501E20DF31D80830894211C311CF50192
:104A1000E20DF31D319780818E37C1F58CE291E074
:104A2000821993092D853E858217930760F5EF85DE
:104A3000F88940822BC021E0521679F585EB9BE086
:104A40000E945105882349F185EB9BE00E944C05AB
:104A5000F501E20DF31D80830894211C311CF50142
:104A6000E20DF31D319780818E3781F48CE291E065
:104A7000821993094D855E858417950720F4EF858B
:104A8000F889508203C0FA81FF5FFA830E943903DC
:104A9000AC01CB01DA017C018D010E9439030E9437
:104AA00039030E9439036E197F09800B910B66153B
:104AB00077058805990508F003C10E9439032B8109
:104AC0003C814D815E81621B730B840B950B60549E
:104AD0007C498040904008F0F3C04CE2241641E04D
:104AE000340608F0EDC0EF85F8898081882309F04D
:104AF000E7C0EB85FC855080552009F09CCF75CF31
:104B0000FA81FF5FFA8300E010E022E0F22E1982C2
:104B100091E0892E912C8AE7482E82E0582E4C0C89
:104B20005D1C960126523E4F3A872987BBED6B2EBE
:104B3000B1E07B2E6C0C7D1C9CC00894811C911CE8
:104B400080818E3721F0319682149304B0F3A40152
:104B5000401B510B588B4F87F20111821082EE24BB
:104B6000A501400F511F0CC0FA01E20FF31F808115
:104B70008D3709F4E3942F5F3F4FF2013183208397
:104B8000F201208131818F8598892817390760F3D8
:104B9000EE2049F09401281B390BC601B5014F8561
:104BA00058890E94EC05D401EF85F889AE1BBF0B34
:104BB000F501EA0FFB1F8381883881F0893830F4D2
:104BC000803879F1813809F048C036C08039A1F1C8
:104BD000813991F18A3809F040C013C02F85388996
:104BE000200F311F2E193109388B2F87C601B501CF
:104BF0004F8158858D010E94B708F82EE985FA8506
:104C00002BC02F853889200F311F2E193109388B81
:104C10002F87C601B501A9019D010E944706F82E04
:104C20001CC04F855889400F511F4E195109588B90
:104C30004F87C601B5010BC02F853889200F311F62
:104C40002E193109388B2F87C601B501A9019D01A5
:104C50000E942C1EF82EF301F082FF2019F4F98136
:104C6000FF5FF9832A8121502A8384010894811CE3
:104C7000911C3A81332321F0F501E80DF91D60CF35
:104C8000C5010E94BE0149814111FF248F2D60960C
:104C90000FB6F894DEBF0FBECDBFCF91DF911F914D
:104CA0000F91FF90EF90DF90CF90BF90AF909F90CB
:104CB0008F907F906F905F904F903F902F900895CE
:104CC000F50180818E3709F01BCF1DCFA8EB6A2E2E
:104CD000ABE07A2E812C912C6ACEEF92FF920F934B
:104CE0001F93CF93DF93EC01FC01E658FD4F118237
:104CF000108290E0DF0106C09F5F2F5F3F4F11964B
:104D00003C932E932D913C911197FB01E20FF31FE1
:104D10008081882389F7092F069510E075E4E72E36
:104D200072E0F72EEC0EFD1E26C0F701808188236D
:104D300061F4FE01E10FF11DE857FD4F408150E0A5
:104D400060E070E083EB9BE011C0813099F481EE6C
:104D500091E10E94F32DFE01E10FF11DE857FD4F97
:104D6000408150E060E070E085EB9BE020E030E0C7
:104D70000E940A051F5F1017C0F2CE01C857DD4F11
:104D8000BE010E940C24DF91CF911F910F91FF90E3
:104D9000EF900895AF92BF92CF92DF92EF92FF9281
:104DA0000F931F93CF93DF938C015A01DC01A65818
:104DB000BD4F11961C921E92ED0109C0F801E80F3B
:104DC000F91FE857FD4F10820196998388838881E7
:104DD00099818E31910590F31D921C9290E0D8013B
:104DE000A658BD4F06C09F5F2F5F3F4F11963C9363
:104DF0002E932D913C911197FB01E20FF31F8081BF
:104E0000882389F7D92ED6947B01C02EC801EC01E6
:104E100010C081EE91E1F701608141810E94622D15
:104E2000C857DD4F888322E030E0E20EF31EC758FA
:104E3000D240FE01EC19ED1560F3F8E1DF16D9F46C
:104E4000F801E658FD4F11821082EF010EC0F80103
:104E5000E20FF31FE157FD4FD501A20FB31F8C9155
:104E600080832F5F3F4F3983288328813981203108
:104E7000310568F362C020E1D216D9F4F801E65892
:104E8000FD4F11821082EF010EC0F801E20FF31FF7
:104E9000E157FD4FD501A20FB31F8C9180832F5F87
:104EA0003F4F39832883288139812830310568F3C1
:104EB00044C03BE0D316D9F4F801E658FD4F118207
:104EC0001082EF010EC0F801E20FF31FE157FD4F12
:104ED000D501A20FB31F8C9180832F5F3F4F398381
:104EE0002883288139812330310568F326C08AE080
:104EF000D816D9F4F801E658FD4F11821082EF015F
:104F00000EC0F801E20FF31FE157FD4FD501A20FCC
:104F1000B31F8C9180832F5F3F4F39832883288173
:104F200039812230310568F308C00D0D111D0A5773
:104F30001D4FF5018081F8018083DF91CF911F9192
:104F40000F91FF90EF90DF90CF90BF90AF900895BA
:104F50000E94CA2608950F931F93CF93DF93EC010D
:104F60008B01C652DE4F82E08883CA5DD140CE01FC
:104F70006BE873E0A8010E94CA26CE016BE873E0DB
:104F80000E94A805CE016BE873E00E946D26982F61
:104F90008823E1F4FE01E658FD4F11821082AF0133
:104FA0000FC0FE01E20FF31FE75AFE4FD801A20F18
:104FB000B31F8C9180832F5F3F4FFA013183208391
:104FC000FA01208131812031310558F3892FDF9199
:104FD000CF911F910F9108950F931F93CF93DF935C
:104FE000EC018B01CE5BDD4F8881C254D240813011
:104FF00041F0833031F0843021F0853011F092E0BF
:1050000017C0C652DE4F82E08883CA5DD140CE0110
:105010006CE374E0A8010E94CA26CE016CE374E040
:105020000E94A805CE016CE374E00E946D26982FC3
:10503000CE5BDD4F8881C254D2408230B1F4C6527B
:10504000DE4F8883CA5DD140CE0161E574E0A801DE
:105050000E94CA26CE0161E574E00E94A805CE0137
:1050600061E574E00E946D26982F992309F048C0ED
:10507000CE5BDD4F8881C254D240813031F0833025
:1050800021F0843011F08530D1F4FE01E658FD4F57
:1050900011821082AF010DC0FE01E20FF31FD80193
:1050A000A20FB31F8C9185872F5F3F4FFA01318389
:1050B0002083FA01208131812230310568F3CE5BF3
:1050C000DD4F8881C254D2408230D1F4FE01E658CF
:1050D000FD4F11821082AF010DC0FE01E20FF31FE0
:1050E000D801A20FB31F8C9185872F5F3F4FFA0124
:1050F00031832083FA01208131812830310568F322
:10510000892FDF91CF911F910F910895EF92FF9218
:105110000F931F93CF93DF93AC01DC01A658BD4FD3
:1051200011961C921E92ED0109C0FA01E80FF91FB9
:10513000E857FD4F10820196998388838881998171
:105140008E31910590F31D921C9290E0DA01A658E1
:10515000BD4F06C09F5F2F5F3F4F11963C932E932C
:105160002D913C911197FB01E20FF31F8081882361
:1051700089F7E92EE6948B01F42ECA01EC010EC0EA
:1051800081EE91E1F801608141810E94622DC85752
:10519000DD4F88830E5F1F4FC758D2409E012F19E5
:1051A0002E1570F3DF91CF911F910F91FF90EF902B
:1051B0000895EF92FF920F931F938C0106521E4F9A
:1051C00082E0F80180830A5D1140B5E3EB2EB5E083
:1051D000FB2EC801B7010E948628C801B7010E94B2
:1051E0006D261F910F91FF90EF900895CF93DF935D
:1051F000EC01C652DE4F82E08883CA5DD140CE0109
:105200006AE875E00E948628CE016AE875E00E948F
:105210006D26982F882331F4C85BDD4F8881CE51ED
:10522000D1408883892FDF91CF910895BF92CF928B
:10523000DF92EF92FF920F931F93CF93DF938C0136
:10524000B42EDC01A658BD4F11961C921E92ED01A2
:1052500009C0F801E80FF91FE857FD4F10820196C9
:1052600099838883888199818E31910590F31D926D
:105270001C9290E0D801A658BD4F06C09F5F2F5FDB
:105280003F4F11963C932E932D913C911197FB012A
:10529000E20FF31F8081882389F7D92ED6947B01F2
:1052A000C02EC801EC0110C081EE91E1F7016081D0
:1052B00041810E94622DC857DD4F888322E030E093
:1052C000E20EF31EC758D240FE01EC19ED1560F353
:1052D0000D0D111D0A571D4FF801B082DF91CF91BE
:1052E0001F910F91FF90EF90DF90CF90BF900895A6
:1052F0001F93CF93DF93EC01162FC652DE4F82E04F
:105300008883CA5DD140CE0169E276E0412F0E94D8
:105310001629CE0169E276E00E94A805CE0169E275
:1053200076E00E946D26882319F4C759DE4F188352
:10533000DF91CF911F910895CF93DF93EC01CB5B69
:10534000DD4F8881C554D240882351F483EB9BE024
:1053500060E040E056E90E94900583EB9BE00BC0C3
:10536000813061F485EB9BE061E040E056E90E940A
:10537000900585EB9BE061E00E945605CE5BDD4F1A
:105380008881C254D240823011F0853029F464EF14
:1053900071E080E090E004C062E370E080E090E0C3
:1053A0000E94510381E0888380E0DF91CF910895CE
:1053B000FC01613021F4E055FD4F608305C063308E
:1053C00029F4E055FD4F1082E05BF240E652FE4FBB
:1053D000108280E0089510923411109235111092CD
:1053E000381110923A1108951F93CF93DF93EC0177
:1053F000162FC652DE4F82E08883CA5DD140CE01AF
:1054000062EE79E0412F0E941629CE0162EE79E02A
:105410000E94A805CE0162EE79E00E946D268823E5
:1054200019F4C552DD4F1883DF91CF911F91089574
:105430000F931F93CF93DF93EC018B01C652DE4F86
:1054400082E08883CA5DD140CE016DE87AE0A80190
:105450000E94A827CE016DE87AE00E94A805CE013F
:105460006DE87AE00E946D26982F8823E1F4FE0112
:10547000E658FD4F11821082AF010FC0FE01E20F0E
:10548000F31FE452FD4FD801A20FB31F8C9180830C
:105490002F5F3F4FFA0131832083FA012081318150
:1054A0002031310558F3892FDF91CF911F910F9152
:1054B00008950F93CF93DF93EC01CE5BDD4F69939B
:1054C000499329930883CD5FD14018822B96188287
:1054D0002C961882CE51DF4F18826D9783E1899305
:1054E00088E888832296199280E2888367968CE305
:1054F000888323968FE389939FEF9883659623E0B3
:1055000028836196199284E0899388E2888327969C
:105510001882C45BDE4F99938EEF8883229619928E
:10552000299319921882C45CD2409E0126583D4F9F
:10553000F90111821082D9010AC0FE01E80FF91F9A
:10554000E953FD4F1082019611969C938E938D9195
:105550009C9111978830910580F3CF52DD4F8EE1F9
:1055600089931992188223968FEF89931992199231
:10557000888322961882CB5DD240F9011182108275
:10558000DE01A658BD4F0AC0FE01E80FF91FE45224
:10559000FD4F1082019611969C938E938D919C9154
:1055A00011978031910580F3C451DD4F84E08883E9
:1055B000C65AD040198218821D921C92E696199202
:1055C0001992199219921992199219921992188294
:1055D00019821A821B82A99619921882C55DD04041
:1055E00092E09883CA52DF4F81E08883C55DD04046
:1055F000999399939883CC5DD140CE010E949E0AE5
:10560000CE010E944D09C055DD4F1882DF91CF9128
:105610000F9108950F9300E00E94592A0F91089569
:10562000882389F480916D1190916E1180509E4F66
:1056300020916F1130917011821B930B60E072E02A
:105640000E946C310895809171119091721180586F
:105650009F4F2091731130917411821B930B60E85E
:1056600070E00E946C3108958823D1F440916F114D
:105670005091701180916D1190916E118417950762
:1056800051F1FA01E059FA4E2081CA01019660E019
:1056900072E00E946C319093701180936F1119C069
:1056A0004091731150917411809171119091721108
:1056B0008417950781F0FA01E051FB4E2081CA0161
:1056C000019660E870E00E946C31909374118093B1
:1056D000731130E002C02FEF3FEFC9010895882316
:1056E00049F41092701110926F1110926E11109275
:1056F0006D1108951092741110927311109272111D
:105700001092711108951F920F920FB60F920BB65F
:105710000F9211242F933F934F935F936F937F9337
:105720008F939F93AF93BF93EF93FF934091C600E6
:10573000E0916D11F0916E11CF01019660E072E081
:105740000E946C319C0180916F119091701128170B
:10575000390739F0E059FA4E408330936E112093A7
:105760006D11FF91EF91BF91AF919F918F917F91BB
:105770006F915F914F913F912F910F900BBE0F90C2
:105780000FBE0F901F9018951F920F920FB60F9299
:105790000BB60F9211242F933F934F935F936F9308
:1057A0007F938F939F93AF93BF93EF93FF9340911A
:1057B000CE00E0917111F0917211CF01019660E875
:1057C00070E00E946C319C01809173119091741172
:1057D0002817390739F0E051FB4E4083309372119E
:1057E00020937111FF91EF91BF91AF919F918F9194
:1057F0007F916F915F914F913F912F910F900BBED1
:105800000F900FBE0F901F901895982F662339F4B4
:105810008091C00085FFFCCF9093C60008958091D1
:10582000C80085FFFCCF9093CE000895FC0110C006
:105830003196662339F48091C00085FFFCCF9093A8
:10584000C60006C08091C80085FFFCCF9093CE00B3
:105850009081992369F708952F923F924F925F921A
:105860006F927F928F929F92AF92BF92CF92DF9270
:10587000EF92FF920F931F93DF93CF93CDB7DEB7D5
:10588000A1970FB6F894DEBF0FBECDBF6B017C01B0
:1058900029013A0109A3611571058105910591F46A
:1058A000002341F48091C00085FFFCCF80E380930A
:1058B000C6005BC08091C80085FFFCCF80E3809369
:1058C000CE0053C08824992454011E010894211C41
:1058D000311C8101080D191DC701B601A3019201F8
:1058E0000E947F31F80160830894811C911CA11CE7
:1058F000B11CC701B601A30192010E947F31C90109
:10590000DA016C017D01C114D104E104F10409F74D
:105910009101280D391DBE016F5F7F4FD501C40174
:105920000197A109B109AC01481959091BC0FA0135
:10593000E20FF31FE081EA3010F4E05D01C0E95CA2
:10594000F9A1FF2339F48091C00085FFFCCFE093DB
:10595000C60006C08091C80085FFFCCFE093CE0052
:10596000215030406217730711F7A1960FB6F894D3
:10597000DEBF0FBECDBFCF91DF911F910F91FF9082
:10598000EF90DF90CF90BF90AF909F908F907F90DF
:105990006F905F904F903F902F900895EF92FF92FD
:1059A0000F931F937B018C014423C1F588E00E9473
:1059B000F403C801B70122E030E040E050E00E946B
:1059C000A131205E3E45484F5F4FCA01B901A80191
:1059D00097010E94A131C901DA010197A109B1091A
:1059E000292F3A2F4B2F552747FD5A950196A11D78
:1059F000B11D2093C50081508093C4008091C100E7
:105A000080618093C1008091C10088608093C10053
:105A10008091C10080688093C10037C080E10E94FE
:105A2000F403C801B70122E030E040E050E00E94FA
:105A3000A131205E3E45484F5F4FCA01B901A80120
:105A400097010E94A131C901DA010197A109B109A9
:105A5000292F3A2F4B2F552747FD5A950196A11D07
:105A6000B11D2093CD0081508093CC008091C9005E
:105A700080618093C9008091C90088608093C900CB
:105A80008091C90080688093C9001F910F91FF9099
:105A9000EF90089510927711109291111092AB111E
:105AA000089582E090E0A0E0B0E08093C31190936D
:105AB000C411A093C511B093C6111092DA110895C4
:105AC000089508956833A1F1693380F4643341F196
:105AD000653338F4623301F1633300F56133D1F497
:105AE00017C0663309F1673308F51CC0633441F110
:105AF000643438F4613401F1623400F5693351F4EF
:105B000019C0653409F16534E8F0663419F41EC033
:105B100081E01DC080E01BC082E019C083E017C097
:105B200084E015C085E013C086E011C087E00FC097
:105B300088E00DC089E00BC08AE009C08BE007C097
:105B40008CE005C08DE003C08EE001C08FE04733DC
:105B5000A1F1483380F4433341F1443338F4413305
:105B6000F1F0423300F54033E1F51BC0453309F154
:105B7000463308F51CC0423441F1433438F449330C
:105B800001F14933E0F0413461F51DC0443409F1BD
:105B90004434E8F04534F9F04634F9F0089591E0E2
:105BA0001DC090E01BC092E019C093E017C094E0C4
:105BB00015C095E013C096E011C097E00FC098E0C3
:105BC0000DC099E00BC09AE009C09BE007C09CE0C3
:105BD00005C09DE003C09EE001C09FE08295807FEC
:105BE000890F089508958FE261E00E94650484E2C0
:105BF00061E00E94650485E261E00E9465048FE235
:105C000061E00E94830484E261E00E94830485E2F3
:105C100061E00E94830408950F931F93162F042FB1
:105C20008FE261E00E94650484E261E00E94650405
:105C300085E261E00E9465048FE261E00E948304D6
:105C400084E2612F0E94830485E2602F0E94830416
:105C50001F910F91089508951F920F920FB60F9202
:105C60000BB60F9211242F933F934F935F936F9333
:105C70007F938F939F93AF93BF93EF93FF93809105
:105C8000B90090E0887F90708036910509F4CAC011
:105C900081369105CCF58832910509F47BC08932B3
:105CA0009105B4F48031910509F46FC081319105FB
:105CB0003CF4009709F414C1089709F01AC165C0B3
:105CC0008831910509F466C0809709F012C17DC042
:105CD0008034910509F48DC08134910544F48033FA
:105CE000910509F472C0C89709F003C1F5C0803569
:105CF000910509F472C08835910509F47FC0883494
:105D0000910509F0F6C086C08839910509F4E0C014
:105D100089399105ECF48837910509F483C08937F6
:105D200091054CF48836910509F47CC080379105C3
:105D300009F0DFC077C08838910509F4C9C08039FF
:105D4000910509F475C08038910509F0D2C070C082
:105D5000803B910509F493C0813B91054CF4803A56
:105D6000910509F477C0883A910509F0C2C087C04F
:105D7000803C910509F4B0C0883C910509F4ACC0A1
:105D8000883B910509F0B5C08FC0809122138093A4
:105D9000BB009CC09091471380914813981768F4FA
:105DA00090914713E92FF0E0E95DFC4E80818093EC
:105DB000BB009F5F9093471389C085ED8093BC0023
:105DC0008091BC0084FDFCCF92C085ED8093BC0027
:105DD0008091BC0084FDFCCF8AC0809147139091D4
:105DE000BB00E82FF0E0E95DFC4E90838F5F80936D
:105DF0004713909147138091481366C080914713D1
:105E00009091BB00E82FF0E0E95DFC4E90838F5F3E
:105E10008093471385ED8093BC008091BC0084FD86
:105E2000FCCF65C083E08093211310928B134EC08A
:105E300080918B13803208F04BC080918B1390912E
:105E4000BB00E82FF0E0E559FC4E90838F5F809314
:105E50008B133CC080918B13803230F4E0918B1314
:105E6000F0E0E559FC4E108260918B13E091251310
:105E7000F09126138BE693E170E009952DC084E044
:105E8000809321131092691310926A13E0912313E7
:105E9000F0912413099580916A13882329F481E0F5
:105EA00080936A131092491390916913E92FF0E0DF
:105EB000E75BFC4E80818093BB009F5F90936913EA
:105EC0009091691380916A13981710F485EC01C0C2
:105ED00085E88093BC000DC085EC8093BC0007C0B2
:105EE00085ED8093BC008091BC0084FDFCCF1092B6
:105EF0002113FF91EF91BF91AF919F918F917F916E
:105F00006F915F914F913F912F910F900BBE0F902A
:105F10000FBE0F901F9018951F920F920FB60F9201
:105F20000BB60F9211242F933F934F935F936F9370
:105F30007F938F939F93AF93BF93EF93FF93809142
:105F40008C1390918D13892B29F0E0918C13F09193
:105F50008D130995FF91EF91BF91AF919F918F9113
:105F60007F916F915F914F913F912F910F900BBE59
:105F70000F900FBE0F901F9018951F920F920FB6A3
:105F80000F920BB60F9211242F933F934F935F9371
:105F90006F937F938F939F93AF93BF93EF93FF93F1
:105FA00080918E1390918F13892B29F0E0918E139D
:105FB000F0918F130995FF91EF91BF91AF919F9150
:105FC0008F917F916F915F914F913F912F910F90A2
:105FD0000BBE0F900FBE0F901F9018951F920F923F
:105FE0000FB60F920BB60F9211242F933F934F933E
:105FF0005F936F937F938F939F93AF93BF93EF9331
:10600000FF938091901390919113892B29F0E09147
:106010009013F09191130995FF91EF91BF91AF917A
:106020009F918F917F916F915F914F913F912F91B0
:106030000F900BBE0F900FBE0F901F9018951F92E0
:106040000F920FB60F920BB60F9211242F933F931E
:106050004F935F936F937F938F939F93AF93BF9370
:10606000EF93FF938091921390919313892B29F0D2
:10607000E0919213F09193130995FF91EF91BF91E5
:10608000AF919F918F917F916F915F914F913F91D0
:106090002F910F900BBE0F900FBE0F901F90189571
:1060A0001F920F920FB60F920BB60F9211242F93DF
:1060B0003F934F935F936F937F938F939F93AF9390
:1060C000BF93EF93FF938091941390919513892B35
:1060D00029F0E0919413F09195130995FF91EF91B8
:1060E000BF91AF919F918F917F916F915F914F91F0
:1060F0003F912F910F900BBE0F900FBE0F901F90EE
:1061000018951F920F920FB60F920BB60F92112493
:106110002F933F934F935F936F937F938F939F93AF
:10612000AF93BF93EF93FF93809196139091971342
:10613000892B29F0E0919613F09197130995FF911F
:10614000EF91BF91AF919F918F917F916F915F91EF
:106150004F913F912F910F900BBE0F900FBE0F905C
:106160001F9018951F920F920FB60F920BB60F92B9
:1061700011242F933F934F935F936F937F938F934C
:106180009F93AF93BF93EF93FF9380919813909158
:106190009913892B29F0E0919813F091991309959F
:1061A000FF91EF91BF91AF919F918F917F916F91EF
:1061B0005F914F913F912F910F900BBE0F900FBEAB
:1061C0000F901F9018951F920F920FB60F920BB65B
:1061D0000F9211242F933F934F935F936F937F936D
:1061E0008F939F93AF93BF93EF93FF9380919A13F5
:1061F00090919B13892B29F0E0919A13F0919B13B6
:106200000995FF91EF91BF91AF919F918F917F91F0
:106210006F915F914F913F912F910F900BBE0F9017
:106220000FBE0F901F9018950895FC0180EC92E12D
:10623000A0E0B0E080839183A283B38381E0848374
:10624000E755FF4F22E02083E95AF040178216827B
:1062500080E890E0918780871286238784EE9AE019
:1062600095AB84AB8AEE9AE097AB86AB81EF9AE070
:1062700091AF80AF85EF9AE093AF82AF88EF9AE05D
:1062800095AF84AF8AEF9AE097AF86AFE05CFF4F9F
:1062900084E09BE0819391938FE09BE081939193C5
:1062A000108208958CE993E10E94153108950895B4
:1062B000AA1BBB1B51E107C0AA1FBB1FA617B7072C
:1062C00010F0A61BB70B881F991F5A95A9F7809548
:1062D0009095BC01CD01089597FB092E07260AD0A1
:1062E00077FD04D0E5DF06D000201AF470956195A3
:1062F0007F4F0895F6F7909581959F4F0895A1E2FD
:106300001A2EAA1BBB1BFD010DC0AA1FBB1FEE1F2F
:10631000FF1FA217B307E407F50720F0A21BB30B7A
:10632000E40BF50B661F771F881F991F1A9469F7F6
:1063300060957095809590959B01AC01BD01CF0152
:10634000089597FB092E05260ED057FD04D0D7DF00
:106350000AD0001C38F450954095309521953F4F58
:106360004F4F5F4F0895F6F7909580957095619522
:106370007F4F8F4F9F4F0895EE0FFF1F0590F491B1
:08638000E02D0994F894FFCF11
:106388004E6574776F726B205365742055702C209E
:1063980072756E6E696E67206C6F6F70206D6574B4
:1063A800686F642E2E2E004368616E6E656C2069DE
:1063B800733A20004572726F722067657474696E53
:1063C80067206368616E6E656C0050414E494420D9
:1063D800736574204F4B004572726F72207768693D
:1063E8006C65206368616E67696E672050414E492D
:1063F8004400536563757269747920656E61626CD7
:106408006564004572726F72207768696C652065F3
:106418006E61626C696E6720736563757269747901
:10642800005365637572697479206F7074696F6E53
:106438007320636F6E666967757265640045727272
:106448006F72207768696C6520636F6E666967751F
:1064580072696E67207365637572697479004C6937
:106468006E6B204B657920736574204F4B00457225
:10647800726F72207768696C652073657474696ED1
:1064880067204B6579004E6574776F726B204B659A
:106498007920736574204F4B0041505320456E633B
:1064A80072797074696F6E20736574204F4B004564
:1064B80072726F72207768696C652073657474698D
:1064C8006E672041505320456E6372797074696F0E
:1064D8006E004368616E6765732073746F726564DC
:1064E800204F4B004572726F72207768696C652087
:1064F80073746F72696E672076616C756573005787
:106508006173706D6F74654B657900374530303154
:10651800343038353234423539303030303030303C
:106528003030303030303030303030303030303063
:106538003030303030303030303030003745303067
:106548003035303835323445353430303030003736
:1065580045303030363038353234453534303030E7
:10656800303030003745303030363038353235331A
:10657800353030303030303000374530303037301B
:106588003835323533353030303030303030300017
:1065980037453030303630383532353335343030B1
:1065A80030303030003745303030373038353235DC
:1065B80033353430303030303030300037453030DB
:1065C8003036303835323439343430303030303099
:1065D8000037453030304330383532343934343090
:1065E80030303030303030303030303030303030A3
:1065F8003000374530303036303835323533343383
:106608003030303030300037453030303630383583
:10661800323444353930303030303000374530305E
:10662800303430383532353334463033003745303E
:10663800303034303835323532343530450037452E
:106648003030303430383532343635323044003733
:10665800453030303430383532343134333231002B
:1066680037453030303430383532353235303033E4
:1066780000374530303034303835323536353246EB
:1066880044003745303030343038353234383536D8
:1066980030370037453030303430383532353334E0
:1066A80034304500374530303034303835323533C2
:1066B80034333046003745303030343038353235B1
:1066C800373532464300374530303034303835328C
:1066D800344534463038003745303030343038357A
:1066E8003234453534303300374530303034303883
:1066F8003532344534343133003745303030343076
:106708003835323445343930450037453030303447
:106718003038353234333438314100374530303051
:10672800343038353235333444303500374530303D
:106738003034303835323439343431380037453034
:1067480030303430383532344435394646003745F0
:106758003030303430383532353334383041003722
:106768004530303034303835323533344330360004
:1067780037453030303530383532353334463030BF
:1067880030300037453030303530383532353235F5
:1067980030303030300037453030303530383532F1
:1067A80035303443303030300037453030303530D4
:1067B80038353234353435303030300037453030C4
:1067C80030353038353234353434303030300037C5
:1067D8004530303035303835323533343430303078
:1067E800300037453030303530383532344534466E
:1067F800303030300037453030303530383532348D
:1068080033343830303030004649524D57415245C4
:106818005F46494C455F464F525F574153504D4F75
:106828005445232323232323003745303030353084
:106838003835323533344430303030003745303035
:106848003035303835323431344630303030003736
:1068580045303030353038353234313530303030FD
:106868003000374530303035303835323432343412
:106878003030303000003030303030303030303070
:1068880030304646464600626F6F742E7478740046
:1068980046494C4541555800353637380046495227
:1068A8004D574152452044454C45544544242424E1
:1068B800242424242424242424242424240046496D
:1068C800524D57415245204E4F542044454C455453
:1068D8004544242424242424242424242424004E29
:1068E80045572050524F4752414D2052554E4E4920
:1068F8004E47242424242424242424242424240027
:1069080050524556494F55532050524F4752414DCA
:106918002052554E4E494E4724242424242424240E
:106928000052455354415254494E472424242424A8
:10693800242424242424242424242424242424240F
:1069480024005245414420424F4F544C495354244B
:1069580024242424242424242424242424242424EF
:10696800004552004F4B005354415254205749544C
:1069780048204649524D57415245204F4B24242424
:1069880024242424242424242424242424242424BF
:1069980024242424242424005354415254205749A5
:1069A8005448204649524D57415245204552524F6E
:1069B8005224242424242424242424242424242461
:1069C8002424242424242424002323230050524F45
:1069D8004752414D205245434549564544204F4B67
:1069E8002424242424242424242424242400505229
:1069F8004F4752414D20524543454956454420454D
:106A080052524F522424242424242424242400379A
:106A18004530303034303835323434343231460051
:106A28002B2B2B0061746462006174636E00374520
:106A3800303030343038353235303444303800373F
:106A48004530303034303835323435344631310021
:106A580037453030303430383532343134393142DA
:106A68000037453030303430383532343135323112
:106A780032003745303030343038353234413445DF
:106A880030440037453030303430383532344135D1
:106A980036303500374530303034303835323445CB
:106AA80034413044003745303030343038353235B1
:106AB8004135334638003745303030343038353298
:106AC800343234383142003745303030343038359C
:106AD8003234453438304600374530303034303879
:106AE8003532344535303037003745303030343082
:106AF800383532344534333134003745303030346A
:106B0800303835323444353030380037453030305D
:106B18003430383532323535363241003745303049
:106B28003034303835323446343930440037453023
:106B38003030343038353234463530303600374529
:106B4800303030343038353234343434314400372E
:106B580045303030353038353235303444303030E7
:106B680030003745303030353038353234353446FA
:106B78003030303000374530303035303835323409
:106B880031353230303030003745303030353038FC
:106B980035323441344530303030003745303030CC
:106BA80035303835323441353630303030003745BD
:106BB800303030353038353234453441303030308B
:106BC800003745303030353038353235413533309F
:106BD80030303000374530303035303835323432A7
:106BE8003438303030300037453030303530383593
:106BF8003234453438303030300037453030303575
:106C08003038353234453532303030300037453061
:106C18003031343038353234453442303030303029
:106C2800303030303030303030303030303030305C
:106C38003030303030303030303030303000374560
:106C48003030303530383532353334453030303007
:106C5800003745303030353038353234343434301C
:106C68003030300039363030300034393732363051
:106C780000393231003132003100343134302E38AD
:106C88003231370030303035332E3137333600313A
:106C98003938006572726F723A20746865204750FF
:106CA800532074696D6564206F75740024505352C5
:106CB800463130302C302C25752C382C312C302A8C
:106CC80030460024475047474100244750474C4C22
:106CD8000024475047534100244750475356002447
:106CE8004750524D4300244750565447006570683A
:106CF800656D657269732E7478740024505352461A
:106D08003130342C25732C25732C25732C25732CAA
:106D180025732C25732C25732C25732A30300020DD
:106D2800007417000001020304050607087F037FAB
:026D3800030155
:00000001FF
